:020000040800F2
:10000000900D002091010008E32C00082B26000829
:10001000E12C0008F10C00088939000800000000FC
:10002000000000000000000000000000F1330008A4
:10003000310D000800000000D131000849340008EB
:10004000AB010008AB010008AB010008AB010008E0
:10005000AB010008AB010008AB010008AB010008D0
:10006000AB010008AB010008AB010008AB010008C0
:10007000AB010008AB010008AB010008AB010008B0
:10008000AB010008AB010008AB010008AB010008A0
:10009000AB010008AB010008AB010008AB01000890
:1000A000AB010008AB010008AB010008AB01000880
:1000B000AB010008AB010008AB010008AB01000870
:1000C000AB010008AB010008AB010008C932000811
:1000D000AB010008AB010008713900087D39000848
:1000E000AB010008AB010008AB01000800F002F80A
:1000F00000F03FF80AA090E8000C82448344AAF183
:100100000107DA4501D100F034F8AFF2090EBAE880
:100110000F0013F0010F18BFFB1A43F0010318473B
:10012000A06D0000C06D0000103A24BF78C878C1EF
:10013000FAD8520724BF30C830C144BF04680C60ED
:10014000704700000023002400250026103A28BF35
:1001500078C1FBD8520728BF30C148BF0B60704739
:10016000642900F09180002070471FB51FBD10B5B5
:1001700010BD00F028FA1146FFF7F7FF03F00EFE5E
:1001800000F046FA03B4FFF7F2FF03BC00F04EFAAA
:100190000948804709480047FEE7FEE7FEE7FEE71B
:1001A000FEE7FEE7FEE7FEE7FEE7FEE70448054957
:1001B000054A064B70470000AB340008ED0000080C
:1001C00090070020900D0020900900209009002049
:1001D000B2F120030AD5C2F1200320FA02F001FA9D
:1001E00003F321FA02F140EA0300704721FA03F019
:1001F0004FF00001704700000FB41CB5074B06AA72
:100200007B4469460090059800F0C5F900206946D6
:1002100000F0D4F91CBC5DF814FB0000B903000029
:100220002DE9F0410E460446002020622046E16898
:10023000884730B3252805D0D4E901219047206AAA
:10024000401CF2E7E168204600278847050018D0E7
:10025000A5F14100192802D820354FF40067324635
:10026000294620462760FFF77BFF40B1012804D0D4
:10027000F61D26F007060836D8E7361DD6E72846CD
:10028000DAE7206ABDE8F0812DE9F0410646002456
:1002900010687529314616A510D0AFF300800028EC
:1002A00002DA404213A507E031688A0701D512A59A
:1002B00002E0490704D511A5012401E0AFF3008055
:1002C00000210A2206F1240709E0B0FBF2FCB0FB92
:1002D000F2F302FB1C00303078541846491C002809
:1002E000F3D123462A463046BDE8F04100F0F4B889
:1002F000000000002D0000002B0000002000000086
:1003000040EA010310B59B070FD1042A0DD310C892
:1003100008C9121F9C42F8D020BA19BA884201D9E4
:10032000012010BD4FF0FF3010BD1AB1D30703D02C
:10033000521C07E0002010BD10F8013B11F8014BE2
:100340001B1B07D110F8013B11F8014B1B1B01D1FE
:10035000921EF1D1184610BD10B5431C02E010F8F2
:10036000011B71B18107FAD14FF0013202C88C1A1A
:100370008C4314EAC211F9D0C01A0A0603D0C01E79
:1003800010BDC01A10BD0A0401D0801E10BD0902A4
:10039000FCD0401E10BD032A40F2308010F0030C48
:1003A00000F0158011F8013BBCF1020F624498BFC8
:1003B00011F801CB00F8013B38BF11F8013BA2F165
:1003C000040298BF00F801CB38BF00F8013B11F0E0
:1003D000030300F02580083AC0F0088051F8043B80
:1003E000083A51F804CBA0E80810F5E7121D5CBFED
:1003F00051F8043B40F8043BAFF30080D20724BF20
:1004000011F8013B11F801CB48BF11F8012B24BFB3
:1004100000F8013B00F801CB48BF00F8012B704702
:1004200010B5203AC0F00B80B1E81850203AA0E88F
:100430001850B1E81850A0E81850BFF4F5AF5FEAC3
:10044000027C24BFB1E81850A0E8185044BF18C976
:1004500018C0BDE810405FEA827C24BF51F8043B1D
:1004600040F8043B08BF7047D20728BF31F8023B71
:1004700048BF11F8012B28BF20F8023B48BF00F805
:10048000012B70474FF0000200B513469446964684
:10049000203922BFA0E80C50A0E80C50B1F1200197
:1004A000BFF4F7AF090728BFA0E80C5048BF0CC045
:1004B0005DF804EB890028BF40F8042B08BF7047A3
:1004C00048BF20F8022B11F0804F18BF00F8012B15
:1004D00070477047704770472DE9F0470D469946C1
:1004E0009246044600F124080168880604D5E069B4
:1004F00021F01001216000E00120A84201DD471B2E
:1005000000E00027A1697A1902EB0900081AA0612E
:100510002078C00602D42046AFF30080002608E011
:10052000D4E901211AF806009047206A401C761C85
:1005300020624E45F4DB2078C0060AD52046AFF392
:10054000008006E0D4E9012130209047206A401C59
:100550002062381EA7F10107F4DC07E0D4E901218D
:1005600018F805009047206A401C2062281EA5F15B
:100570000105F3DC2046AFF300802078000602D5A9
:100580000220BDE8F0870120FBE7000001694A1C5A
:1005900002610878704700B58FB0CDE901310021C4
:1005A000059105497944CDE9031011466846FFF7E6
:1005B00037FE0FB000BD0000E5FFFFFF0A6802F83C
:1005C000010B0A607047754600F02CF8AE46050036
:1005D0006946534620F00700854618B020B5FFF75E
:1005E000E5FDBDE820404FF000064FF000074FF05A
:1005F00000084FF0000B21F00701AC46ACE8C00941
:10060000ACE8C009ACE8C009ACE8C0098D46704749
:1006100010B50446AFF300802046BDE81040FFF758
:10062000B1BD000000487047300700200149182084
:10063000ABBEFEE726000200704700B58BB0020A91
:100640008DF824208DF82500080A8DF826000AA8C8
:100650008DF82710009001AB042209A90C2000F0AE
:1006600043FA38B9BDF828000B2803D39DF80D00D4
:100670000BB000BDFF20FBE710B5044600F056F9B3
:1006800000281BD1012000F01AF8002816D14FF4E1
:10069000FA6000F04BFC00F049F900280ED102206E
:1006A00000F00DF8002809D100F0DAF9002805D192
:1006B0002146BDE81040012000F0CEBA10BD00B5C3
:1006C0008BB001AB8DF824000AA80090012209A983
:1006D000022000F009FA38B9BDF828000B2803D32E
:1006E0009DF80D000BB000BDFF20FBE727284FD27F
:1006F000DFE800F01416181A1C1E20222426282ACF
:100700002C2E303234364E384E3A4E4E3C3E40421D
:10071000444E4E4E4E4E4E46484A4C001DA0704729
:100720001DA0704720A0704722A0704725A07047E9
:1007300028A070472BA070472EA0704731A07047AB
:1007400033A0704735A0704737A0704739A0704775
:100750003BA070473DA0704740A0704743A0704742
:1007600045A0704747A0704748A070474BA070470E
:100770004DA0704750A0704752A0704755A07047D9
:1007800059A070475BA070475EA0704760A070479B
:1007900062A070474F4B0000526563656976652023
:1007A0006572726F720000004E6F2066696E676539
:1007B0007200000047657420696D6167652066619D
:1007C000696C0000496D61676520746F6F20647209
:1007D00079000000496D61676520746F6F2077654F
:1007E00074000000496D61676520746F6F206E6F43
:1007F0006973790046656174757265206661696C1C
:10080000000000004E6F206D6174636800000000FE
:100810004E6F20666F756E64000000004D65726754
:1008200065206661696C00004F7665722072616EAA
:100830006765000052656164206572726F72000026
:1008400055706C6F6164206661696C005265636508
:1008500069766520646174610000000055706C6FFA
:10086000616420696D6167650000000044656C6526
:100870007465206661696C00436C65617220666115
:10088000696C00004E6F207061737300496E766171
:100890006C696420696D6167650000005772697456
:1008A0006520666C617368004E6F20646566696ED2
:1008B0006974696F6E000000496E76616C6964202E
:1008C0007265670057726F6E67206E6F7465706136
:1008D000640000004661696C20636F6D6D756E6920
:1008E000636174696F6E00004E6F2066696E6765A4
:1008F000722032005365636F6E6420696D616765B5
:10090000000000004E6F742073616D6500000000F0
:10091000426164207061636B61676500556E6B6E48
:100920006F776E206572726F7200000000B58BB039
:1009300009A80022009001AB1146012000F0D4F874
:1009400038B9BDF824000B2803D39DF80D000BB077
:1009500000BDFF20FBE70000F0B58BB00646002489
:100960004FF49675304600F019F9002820D028463B
:1009700000F0DCFA641CE4B2032CF3D3002401AFD2
:10098000002202AB11464020009700F0ADF888B974
:10099000BDF804000F280DD3DDF812009DF81510E6
:1009A00000BA20F0FF00084307493060486000208B
:1009B0000BB0F0BD284600F0B9FA641CE4B2022C7A
:1009C000DED3FF20F4E700002400002010B502F081
:1009D0007FF84FF47A7000F0A9FA642000F0A6FACC
:1009E0004FF4FA74204600F0A1FA2046BDE810400A
:1009F00000F09CBA2DE9F0478946824600F054FC8D
:100A0000154C002605462680DFF8508041F28837D5
:100A10001AE02088A8B12088092812D3B8F8070066
:100A2000218840BA093081420BD322880B495046B5
:100A3000FFF7B1FC2188A9F8001026800020BDE84E
:100A4000F087012000F072FA00F02EFC401BB84243
:100A5000DFD32680FF20F2E72400002030060020AC
:100A600000B58BB009A80022009001AB114605200B
:100A700000F03AF838B9BDF824000B2803D39DF8EC
:100A80000D000BB000BDFF20FBE730B58DB01C465C
:100A9000109D8DF80400080A8DF805008DF80610E9
:100AA000100A8DF807000BA88DF80820009003AB02
:100AB000052201A9042000F017F890B9BDF82C0018
:100AC0000F280ED39DF8150038B9BDF8160040BAAE
:100AD0002080BDF8180040BA28809DF815000DB0A0
:100AE00030BDFF20FBE70000F0B5C1B014000246A6
:100AF0004FF0EF00469F8DF800001E4625484FF04E
:100B000001038DF8013040686D464FEA106C8DF896
:100B100002C04FEA104C8DF803C04FEA102C8DF83C
:100B200004C08DF8050004F103008DF806304FEA8B
:100B300010238DF808008DF807308DF809204FF04C
:100B40000A0006D005F10A002246FFF724FC0A3409
:100B5000A0B20022062104E06B5C491C1A4492B248
:100B600089B28142F8D3110A2954401C80B241F263
:100B700088332A54401C82B26946074801F004FDBC
:100B800036B12FB139463046FFF734FF41B0F0BDE2
:100B90000020FBE724000020480100202DE9FE434F
:100BA000814600F081FB0646EF20284C8DF80000BE
:100BB00001218DF801106068020E8DF80220020CF0
:100BC0008DF80320020A8DF804208DF80500002519
:100BD0008DF806108DF807508DF80850258041F2E9
:100BE00088373B4609226946194801F0CDFCC820E8
:100BF00000F09CF9DFF85C8011E0208809280BD315
:100C000098F800104046EF2906D14178012903D118
:100C100098F8060007280BD0012000F087F900F0B3
:100C200043FB801BB842E8D32580FF20BDE8FE834C
:100C3000D8F8020098F8051000BA20F0FF00084329
:100C4000C9F80000606025800020EFE72400002044
:100C5000480100203006002000B58BB001AB8DF8B4
:100C60002400080A8DF825000AA88DF826100090A7
:100C7000032209A90620FFF737FF38B9BDF828007D
:100C80000B2803D39DF80D000BB000BDFF20FBE740
:100C900038B50C460546FFF749FE00280CD1012067
:100CA000FFF70DFD002807D12B464FF49672002167
:100CB00001200094FFF7E9FE38BD00000A4A10B594
:100CC00011780A2901D3002010BD01EB8103074CE4
:100CD000491C234404681C6000791871117002F0EB
:100CE000ABFF012010BD0000000000202C00002000
:100CF000FEE700002DE9F041074600240A4E0B4DA7
:100D00000AE000BF04EB8400304405223946FFF7B7
:100D1000F7FA38B1641CE4B228788442F2D3002098
:100D2000BDE8F0810120FBE72C000020000000203E
:100D3000704772B6FEE7000006490020C861064809
:100D4000016941F004010161016941F04001016163
:100D5000704700009001002000200240064A002158
:100D6000D16106490A6942F002020A6148610869D4
:100D700040F04000086170479001002000200240D0
:100D8000044B0022DA61044A136943F00103136142
:100D9000018070479001002000200240144800228A
:100DA000C168CB06134904D5CA6942F00202CA6180
:100DB0001022C3685B0705D5CB6943F00103CB6103
:100DC00042F00402C369DB0707D0CB6943F0040398
:100DD000CB61C16921F00101C161A2F580710139C6
:100DE00001D0C2607047C16921F00101C161704743
:100DF000002002409001002070B5054600F054FA32
:100E00000646114C09E0681C07D025B100F04CFAE9
:100E1000801BA84201D9032070BDE068C007F2D151
:100E2000E068800601D52020E060E068C00605D4B7
:100E3000E069C00702D1E068400703D5FFF7AEFFC5
:100E4000012070BD002070BD0020024010B590F858
:100E500021100022022905D00421816380F820207E
:100E6000012010BD01680B6823F00E030B600168C0
:100E70000B6823F001030B6090F84030C46B012134
:100E800001FA03F3636080F8211080F820201046F7
:100E900010BD000010B590F821100024022903D0E5
:100EA0000421816301243DE001680A6822F00E02FA
:100EB0000A6001680A6822F001020A601A4A0168A1
:100EC000914201D1012121E0174A1432914201D10E
:100ED00010211BE0144A2832914201D1891515E0F6
:100EE000114A3C32914201D189140FE00E4A50322E
:100EF000914202D14FF4803108E00B4A64329142B2
:100F000002D14FF4801101E04FF08071064A083A97
:100F10005160012180F82110002180F82010416BE0
:100F200001B18847204610BD0800024070B5044654
:100F300000F0BAF90546601C02D004480078044469
:100F400000F0B2F9401BA042FAD370BD140000209B
:100F50002DE9F047054626480F460126017E012966
:100F60000FD00121814601762868DFF888804CF295
:100F70005034022808D0A2462046FFF73DFFA8B112
:100F800031E00220BDE8F0872046FFF735FF08BBBF
:100F90000120FFF7D1FE2046FFF72EFFD8F81010F2
:100FA000064621F00401C8F810101CE04FF0FF3095
:100FB0003860AC6811E02046FFF7D0FE5046FFF7DE
:100FC0001BFFD8F81010060021F00201C8F810101D
:100FD00001D03C6007E004F58064D5E9020100EB34
:100FE0008120A042E7D8002189F818103046C9E7CF
:100FF00090010020002002400348016941F0800177
:101000000161002070470000002002402DE9F05FE0
:1010100007461C4888460024017E15461E460129C5
:1010200009D00121814601764CF2503A5046FFF733
:10103000E3FE18B122E00220BDE8F09F012F02D0AC
:10104000022F00D00427D346DFF83CA02201284617
:101050003146FFF7BDF881B208EB4400FFF790FE80
:101060005846FFF7C9FEDAF8102022F00102CAF84C
:10107000102018B9641CE4B2BC42E7D3002289F8FE
:101080001820D9E7900100200020024006490020E6
:101090000A69120607D5054A4A60054A4A60096985
:1010A000090600D501207047002002402301674552
:1010B000AB89EFCD2DE9F84FDFF8B8910024A9F105
:1010C000040B23460F2709F1040AABF1040EC9E013
:1010D0000125A5402A40AA427DD1674ED1F804C01F
:1010E000ACEB0608B44532D014DCBCF1030F3AD0A7
:1010F00009DCBCF1000F2AD0BCF1010F1CD0BCF1FF
:10110000020F31D11DE0BCF1110F17D0BCF1120F4D
:101110002AD119E0B8F5881F19D006DCB8F5803F50
:1011200015D0B8F5801F1FD111E0B8F5001F0ED003
:10113000B8F5041F18D10AE0CB6815E0CB681B1D79
:1011400012E0CB6808330FE0CB680C330CE08B68FF
:101150002BB1012B4FF0080303D0456104E00423B9
:1011600002E0056100E00023FF2A01D8064601E005
:1011700000F104064FEA840501D9A5F12005D6F84F
:10118000008007FA05FC28EA0C0803FA05F548EA8E
:101190000508C6F800804D68ED0062D5374DAE6990
:1011A00046F00106AE61AD6924F0030605F00105C5
:1011B0000095334D06EB050CDCF80850A607360FFA
:1011C00007FA06F825EA0805DFF8B880404503D19C
:1011D0004FF0000817E044E0DFF8AC80404502D152
:1011E0004FF001080FE0DFF8A480404502D14FF036
:1011F000020808E0DFF89880404502D14FF003086C
:1012000001E04FF0040808FA06F848EA0508CCF8AF
:1012100008804D68D9F80060ED024D4601D51643AF
:1012200000E096432E604D68DAF80060AD02554646
:1012300001D5164300E096432E604D68DBF8006050
:10124000AD035D4601D5164300E096432E604D6820
:10125000DEF80060ED03754601D5164300E09643C5
:101260002E60641C0D682A46E5407FF431AFBDE86E
:10127000F88F000008040140000011100010024027
:101280000000014000080140000C01400010014036
:10129000001401408068084000D0012070470AB166
:1012A000016170470904FBE701488068704700004E
:1012B0001400002002488168027811448160704760
:1012C00014000020074810B5016841F010010160CA
:1012D000032000F075F80F2000F006F800F024F865
:1012E000002010BD0020024070B50D4D04464FF4A3
:1012F0007A712878B1FBF0F00A490968B1FBF0F087
:1013000000F0E0FC48B9102C07D200222146501E04
:1013100000F036F800206C6070BD012070BD000048
:1013200014000020200000200C4808B5816941F01D
:1013300001018161816901F001010091C16941F000
:101340008051C161C06900F080500090044841683C
:1013500021F0E06141F00071416008BD00100240E1
:1013600000000140002809DB00F01F02012191402C
:101370004009800000F1E020C0F800117047000033
:10138000F0B40E4B1B680C46C3F30223C3F10705F0
:10139000042D00D90425191D072901D2002300E0DE
:1013A000DB1E012606FA05F1491E214099409E40A8
:1013B000761E16403143F0BC02F0E0BC0CED00E0BC
:1013C000064900F0070208684FF6FF03184040EA9C
:1013D0000220034A10430860704700000CED00E053
:1013E0000000FA052DE9F0470F46050061D0434E95
:1013F000306800F00700B84209D2306820F00700DA
:1014000038433060306800F00700B84251D1286896
:101410003B4C810712D5400703D5606840F4E0607B
:1014200060602878000703D5606840F46050606011
:101430006068A96820F0F000084360602878C00761
:1014400028D06868012810D02168022810D08907A8
:1014500000292EDA616821F0030101436160FFF782
:1014600023FF804641F288390DE021688903EFE7C8
:101470008901EDE7FFF718FFA0EB0801494502D904
:101480000320BDE8F0876068696800F00C00B0EBED
:10149000810FEFD1306800F00700B8420BD93068F7
:1014A00020F0070038433060306800F00700B84291
:1014B00001D00120E5E72878400705D56068E96894
:1014C00020F4E060084360602878000706D5606873
:1014D000296920F4605040EAC100606000F038F8EB
:1014E0006168084AC1F30311515CC84006490860AD
:1014F00006480068FFF7F8FE0020C2E7002002401F
:1015000000100240BE5400082000002018000020F7
:101510000448054900684968044AC1F30221515C46
:10152000C84070472000002000100240CE54000840
:101530000448054900684968044AC1F3C221515C66
:10154000C84070472000002000100240CE54000820
:101550000E4A51680E4801F00C03042B11D0082BE1
:101560000FD10C48C1F38343C903C05C0AD551684D
:10157000084AC1F34041921E515C054A5043B0FBFA
:10158000F1F07047044948437047000000100240E2
:1015900000127A00AE54000800093D002DE9F84F12
:1015A000040070D02078C04DC00749D06868C0F3EF
:1015B0008100012807D06868C0F38100022809D1A2
:1015C0006868C00306D52868800339D5606800289C
:1015D000E7D035E06068B0F5803F0BD010B1B0F5D2
:1015E000A02F11D0286820F480302860286820F4CB
:1015F000802002E0286840F480302860606890B164
:10160000FFF752FE06460AE0286840F48020286072
:10161000F0E700BFFFF748FE801B642873D82868F6
:101620008003F7D50CE0FFF73FFE064605E000BF5C
:10163000FFF73AFE801B6428F0D828688003F7D4AF
:1016400020789A4E80074FF001094FF0000839D5F5
:10165000686810F00C0F07D06868C0F3810002289A
:1016600009D16868C00306D42868800714D52069AA
:10167000012808D110E02069B0B1C6F80090FFF74A
:1016800013FE074605E00AE1FFF70EFEC01B022825
:10169000C4D828688007F7D52868616920F0F80069
:1016A00040EAC10028600DE0C6F80080FFF7FCFDAD
:1016B000074604E0FFF7F8FDC01B022823D828687E
:1016C0008007F7D4207800072CD57948A169D9B1D3
:1016D000C0F80090FFF7E8FD074604E0FFF7E4FDDF
:1016E000C01B02280FD8686A8007F7D571484FF4ED
:1016F000FA510068B0FBF1F0009000BF0098411E65
:101700000091FAD20EE080E0C0F80080FFF7CCFD37
:10171000074604E0FFF7C8FDC01B022875D8686AB9
:101720008007F7D42078400760D5E8690027C0001B
:1017300008D4E86940F08050E861E869012700F0CA
:10174000805000905C480168C90513D40168834645
:1017500041F480710160FFF7A7FD824606E000BFFB
:10176000FFF7A2FDA0EB0A0064284ED8DBF80000CA
:10177000C005F5D5E06801280AD008B1052813D0C6
:10178000286A20F001002862286A20F0040002E0A4
:10179000286A40F001002862E06841F2883B98B175
:1017A000FFF782FD82460BE0286A40F004002862C1
:1017B000EEE700BFFFF778FDA0EB0A0159455AD8C4
:1017C000286A8007F6D50CE0FFF76EFD824605E03B
:1017D000FFF76AFDA0EB0A0159454CD8286A80073B
:1017E000F6D41FB1E86920F08050E861E06988B361
:1017F0006968C1F38101022944D00228C6F86080DB
:1018000004D0FFF751FD044638E034E0FFF74CFD0B
:10181000074604E0FFF748FDC01B02282BD82868C4
:101820008001F7D4206AB0F5803F05D16868A168CF
:1018300020F4003008436860D4E90801084369686F
:1018400021F4741108436860C6F86090FFF72CFD1E
:10185000044606E025E000BFFFF726FD001B022836
:1018600009D828688001F7D51BE000BFFFF71CFDF1
:10187000001B022802D90320BDE8F88F28688001E8
:10188000F4D40EE00128F7D06868226A00F48031B1
:10189000914204D1616A00F47010884201D00120A5
:1018A000EAE70020E8E700000010024000004242A2
:1018B0008004424220000020007000407047000079
:1018C00038B50446006842688168C9434B0606D5AE
:1018D000CB0704D1D3435B0601D4216C05E08B0711
:1018E00008D4D3431B0605D4616C01B02046BDE883
:1018F000304008478B0601D54B0646D4D3439B06A0
:1019000043D44B060AD494F85130032B3ED0636D78
:1019100043F004036365C36883680093890609D4B0
:10192000616D41F00101616581680091016821F0FC
:1019300040010160606D002827D02068416821F0D7
:10194000E0014160012084F85100900722D0206816
:10195000416821F003014160104DE06C40B14563E6
:10196000E06CFFF797FA18B1606D40F040006065D9
:10197000A06C002809D04563A06CFFF78BFA002803
:1019800003D0606D40F04000606538BDC16880687C
:10199000009038BD2046FFF791FF38BDF5320008B2
:1019A00070B5040009D0606A002540B12561656109
:1019B000A56294F8510040B10CE0012070BD606850
:1019C000B0F5827FF4D0E561F2E784F8505020460C
:1019D00000F040F8022084F851002068016821F0EE
:1019E00040010160A088218900F4827001F4044163
:1019F0000843A18901F400610843217C01F0020140
:101A00000843217D01F001010843218B01F400719D
:101A10000843217F01F03801084394F8201001F0B9
:101A200080010843218D01F40051084321680860BA
:101A3000A069042101EA1040216848602068C1695A
:101A400021F40061C1616565012084F85100002026
:101A500070BD000030B585B000240094019402945C
:101A600003940068184988422BD11848816941F4D1
:101A700080518161816901F480510491816941F053
:101A8000040181618069124D00F004000490A020DF
:101A90000090022001900320039069462846FFF73A
:101AA00009FB4020CDE90004694628460294FFF76F
:101AB00001FB002202212320FFF762FC2320FFF715
:101AC00051FC05B030BD0000003001400010024064
:101AD000000801402DE9FF4F81B01D4693460446A2
:101AE0004FF001090E9EFFF7DFFB074694F8510007
:101AF0006168012806D0B1F5827F3CD1A168C9BBDD
:101B0000042838D10298002871D0BBF1000FFBD017
:101B1000002DF9D094F8500001282CD04FF0010A84
:101B200084F850A094F85100042802D0052084F8CD
:101B300051004FF00008C4F85480C4F838B0E5876D
:101B4000A58702992163E586A586C4F84080C4F87C
:101B5000448020680168490603D4016841F04001CF
:101B60000160E068B0F5006F606808D0F0B3012D47
:101B700049D081E0FFE7022005B0BDE8F08F08B151
:101B8000012D39D1206B21680088C860206B801C32
:101B90002063E08E401EE0862EE020688168890781
:101BA0000FD5E18E69B1B9F1010F0AD1216B098816
:101BB000C160206B801C2063E08E401EE0864FF0E9
:101BC000000920688168C9070CD0E18F51B1C06855
:101BD000A16B0880A06B801CA063E08F401EE08793
:101BE0004FF00109FFF760FBC01B01E00BE067E06D
:101BF000B04201D3701C50D1E08E0028CDD1E08FCF
:101C00000028CAD13EE0206B216800780873206B61
:101C1000401C2063E08E401EE0862DE02068816835
:101C200089070FD5E18E69B1B9F1010F0AD1216B96
:101C300009780173206B401C2063E08E401EE08613
:101C40004FF0000920688168C9070CD0E18F51B1BD
:101C5000C068A16B0870A06B401CA063E08F401EA1
:101C6000E0874FF00109FFF71FFBC01BB04202D312
:101C7000701C01D011E086B1E08E0028CED1E08F3B
:101C80000028CBD13A463146204601F03BFB50B10B
:101C90002020606584F8508012E084F851A084F818
:101CA0005080032068E7A06818B92068C168806880
:101CB000009084F851A084F85080606D0028F1D025
:101CC000012059E710B5401EB0F1807F01D30120FB
:101CD00010BD4FF0E02460610F21601702F04EF854
:101CE0000020A06107202061002010BD70B590F891
:101CF0003C20012A26D0012480F83C40022280F8B2
:101D00003D2003685A689D6822F070060A683243D5
:101D10005A600D4B02689A4208D0B2F1804F05D04C
:101D20000A4B9A4202D00A4B9A4204D1496825F0E4
:101D300080031943916080F83D40002180F83C10F9
:101D4000084670BD022070BD002C01400004004018
:101D50000008004010B5040003D094F83D0010B115
:101D600007E0012010BD002084F83C00204600F070
:101D70001FF8022084F83D00211D206801F096FB29
:101D8000012084F8460084F83E0084F83F0084F87F
:101D9000400084F8410084F8420084F8430084F84D
:101DA000440084F8450084F83D00002010BD000088
:101DB00008B50068B0F1804F08D10548C16941F00D
:101DC0000101C161C06900F00100009008BD000080
:101DD0000010024070B5044690F83C000025012830
:101DE00017D0012684F83C60022084F83D0020686A
:101DF000826822F0770222F47F42826008685028CD
:101E000038D00DDC20284FD005DC90B3102811D13C
:101E10004AE0022070BD302846D040280AD13BE07D
:101E200060282FD070280DD0B0F5805F03D0B0F5BA
:101E3000005F12D0012584F83D60002084F83C004A
:101E4000284670BDCB68D1E90121206801F077FBFD
:101E50002068816841F0770109E0CB68D1E9012170
:101E6000206801F06CFB2068816841F4804181604A
:101E7000E1E719E0CA684968206801F015FC5021C3
:101E8000206806E0CA684968206801F01EFC6021ED
:101E9000206801F05EFBCEE7CA684968206801F05F
:101EA00003FC40212068F4E7226801461046F0E771
:101EB00000B585B000210091019102910391006865
:101EC000B0F1804F1AD10E48816941F0080181615B
:101ED0008069694600F00800049008200090022004
:101EE000019003900748FFF7E5F80748416821F49F
:101EF000407141F0E06141F48071416005B000BD86
:101F000000100240000C01400000014070B5044682
:101F100090F83C0000260D4601280FD0012084F8DF
:101F20003C006AB1042A1DD0082A2FD00C2A3FD0C9
:101F30000126002084F83C00304670BD022070BDB0
:101F4000206801F00FFB2068816941F00801816180
:101F50002068816921F004018161206881692A6912
:101F6000114311E0206801F025FB2068816941F4EC
:101F7000006181612068816921F48061816120684C
:101F800081692A6941EA02218161D2E7206801F072
:101F90003DFB2068C16941F00801C1612068C16949
:101FA00021F00401C1612068C1692A69114311E06F
:101FB000206801F057FB2068C16941F40061C161EC
:101FC0002068C16921F48061C1612068C1692A6902
:101FD00041EA0221C161ACE710B5040003D094F8D6
:101FE0003D0010B107E0012010BD002084F83C0046
:101FF000204600F01EF8022084F83D00211D2068D4
:1020000001F054FA012084F8460084F83E0084F878
:102010003F0084F8400084F8410084F8420084F8CE
:10202000430084F8440084F8450084F83D00002013
:1020300010BD704710B50446022249B104290ED0E4
:10204000082913D094F84100012816D0012010BDB2
:1020500094F83E000128F9D184F83E200FE094F86E
:102060003F000128F2D184F83F2008E094F84000B6
:102070000128EBD184F8402001E084F841200122BE
:10208000206801F04FFA0F492068884203D1426C62
:1020900042F4004242642068884208D0B0F1804F88
:1020A00005D00949884202D00849884204D1816894
:1020B00001F00701062903D0016841F00101016028
:1020C000002010BD002C014000040040000800402A
:1020D00070477047F8B5016804460868CA684B69DC
:1020E00010F00F0F4FF0000559D003F0010602F475
:1020F0009077374365D0C10705D0D10503D5616C12
:1021000041F001016164410705D5D90703D0616C35
:1021100041F002016164810705D5D90703D0616CE4
:1021200041F004016164010707D502F02001314349
:1021300003D0616C41F008016164616C00293AD000
:10214000800604D5900602D5204601F0FFFA2068EB
:102150004069616CC0F38010090700D460B3204669
:1021600001F0CDFA20684069400621D5206814307E
:1021700050E8001F21F0400140E80012002AF5D18C
:10218000E06BA8B16D494163E06BFEF783FE002868
:1021900011D0E06B416B01B0BDE8F0400847830609
:1021A0000FD593060DD52046BDE8F84001F0CEBA14
:1021B0002046FFF78EFFF8BD2046FFF78AFF6564D3
:1021C000F8BD266B2023012E7CD1C6067AD5D60613
:1021D00078D508684868009048694FF002064006C4
:1021E00040D5E16B086840680004000CE8D0A28D7F
:1021F0008242E5D9E085886920282DD020680C30FE
:1022000050E8001F21F4807140E80012002AF5D147
:102210002068143050E8001F21F0010140E800124E
:10222000002AF5D12068143050E8001F21F0400149
:1022300040E80012002AF5D184F842302563206876
:102240000C3050E8001F21F0100140E80012002A75
:10225000F5D1E06BFEF7FAFD6663A08DE18D401AC3
:1022600081B22AE0A08DE18D401A81B2E08D002874
:10227000A6D00029A4D022680C3252E8000F20F426
:10228000907042E80007002FF5D12068143050E824
:10229000002F22F0010240E80027002FF5D184F83A
:1022A0004230256320680C3050E8002F22F01002E5
:1022B00040E80023002BF5D166632046FFF708FFB6
:1022C000F8BDFFE705062BD5150629D594F8410082
:1022D0002128F5D1A068B0F5805F01D12069B0B1A7
:1022E000206A411C2162216800784860E08C401E11
:1022F0000004000CE084E3D12068C16821F0800173
:10230000C1602068C16841F04001C160D8E7206A1F
:102310000088C0F308004860206A801C2062E5E75E
:102320004006CDD55006CBD5CA68204622F04002E3
:10233000CA6084F8413000F077F9C1E7EF36000851
:1023400070B5040004D094F84100002510B106E0F7
:10235000012070BD84F84050204600F023F824206E
:1023600084F841002068C16821F40051C160204612
:1023700001F04EFA2068016921F490410161206862
:10238000416921F02A0141612068C16841F400518E
:10239000C1606564202084F8410084F842006563D0
:1023A000002070BD30B585B00024009401940294E3
:1023B00003942E4D03682E4802210322AB4227D1FD
:1023C000C36943F40033C361C36903F40033049366
:1023D000836943F0040383618069264D00F00400A3
:1023E00004900420CDE90001039269462846FEF7D7
:1023F00061FE0820CDE90004694628460294FEF7F4
:1024000059FE002201212620FEF7BAFF262029E0EE
:10241000194DAB4228D1C36943F48023C361C3691A
:1024200003F480230493836943F008038361806984
:10243000039200F0080004902815CDE900010F4D2B
:1024400069462846FEF736FEE814CDE900046946E1
:1024500028460294FEF72EFE002203212720FEF7D5
:102460008FFF2720FEF77EFF05B030BD00440040FF
:10247000001002400008014000480040000C0140EC
:102480002DE9F84F044690F842009A4616460D464C
:10249000202802D00220BDE8F88FB5B1AEB10020EF
:1024A0006064222184F842102063FEF7FDFEA685B9
:1024B0008146E685A0684FF480582027404501D129
:1024C000206920B12E46002529E00120E3E70026FF
:1024D00025E04B46002220212046CDF800A001F047
:1024E0000EFA18B184F842700320D4E726B1A06830
:1024F00040451AD038B108E020684068C0F30800B1
:1025000025F8020B08E0206978B12068406800F0E7
:102510007F0000BF06F8010BE08D401EE085E08DD6
:102520000028D6D184F84270B5E720684068F1E70A
:1025300090F84230202B01D00220704721B11AB10F
:102540000023036301F0C0B9012070470B498842A2
:1025500013D10B48018809040FD40188FF29018891
:1025600008D8491C0180074900880122014403481A
:10257000FFF7DEBF41F400410180704748010020B1
:1025800024000020300600202DE9F843044690F88E
:102590004100984616460D46202802D00220BDE88C
:1025A000F88385B17EB100206064212084F8410069
:1025B000FEF77AFEA6848146E684A0682027B0F55F
:1025C000805F02D003E00120E9E7206910B12E46C8
:1025D00000250EE000260CE08021204601F08FF956
:1025E000A8B9C6B116F8010B21684860E08C401EFE
:1025F000E084E08C4B464FF00002CDF800800028CC
:10260000EAD14FF04001204601F079F940B184F859
:1026100041700320C3E735F8020BC0F30800E3E77D
:1026200084F841700020BAE77047FEE770B50122D8
:102630000E4D940321462846FEF731FE0122560333
:1026400031462846FEF72BFE00F048F800222146CE
:102650002846FEF724FE00F041F8002231462846C5
:10266000FEF71DFEBDE8704000F038B800100140D4
:1026700070B50B4D4FF48044002221462846FEF7EA
:102680000EFE012251032846FEF709FE00F026F84F
:1026900021462846BDE870400122FEF700BE00003A
:1026A0000010014070B50C4C012291032046FEF74A
:1026B000F6FD00F013F80122550329462046FEF7E7
:1026C000EEFD00F00BF8002229462046FEF7E7FD5C
:1026D000BDE8704000F002B8001001400320401E29
:1026E000C0B2FCD2704770B50C46054600F0AAF89F
:1026F00020EA04012846BDE8704000F0CBB8000095
:102700002DE9FF5F0027FE25DDF838A016468B4631
:102710008146B8460C2805D0B9F10E0F05D1122715
:10272000102001E077273020804647F0800102200A
:1027300000F0B0F880210420FFF7D5FF0021012030
:1027400000F0A8F880210A2000F098F8002405E0A5
:102750001BF80410092000F09DF8641CB442F7D364
:102760004946012000F096F8B9F10C0F03D1802101
:102770000D2000F083F8294E042000F063F8044691
:10278000761E04D0E00702D114EA080FF4D08021AD
:102790000D20FFF7A8FF36B1062000F053F810F027
:1027A0001B0F0CD0FE2580210C2000F067F80021C3
:1027B000012000F06FF804B02846BDE8F09F002526
:1027C0003C40E00700D0FF25B9F10C0FEBD10A2007
:1027D00000F038F804460C2000F034F810F0070040
:1027E0004FEAC40104D008390844AAF8000001E007
:1027F000AAF8001024B1122C04D91224002603E0F8
:102800000124FBE7002605E0092000F01BF80399EE
:102810008855761CA642F7D3C5E70000E093040074
:1028200010B5012210210548FEF739FD0122BDE84F
:10283000104011460248FEF732BD0000000801407A
:10284000000C014070B57E2101EA40000A4D40F0C5
:102850008004002210212846FEF721FD204600F0CA
:1028600039FD002000F036FD0446012210212846E3
:10287000FEF715FD204670BD0008014070B50C46FE
:102880000546FFF7DFFF40EA04012846BDE8704037
:10289000AFF3008070B50E467E2101EA4004094D79
:1028A000002210212846FEF7FAFC204600F012FD17
:1028B000304600F00FFD2846BDE87040012210218F
:1028C000FEF7EDBC000801402DE9F04786B0002579
:1028D00035480095019502950395816941F01001F5
:1028E0008161816901F010010491816941F0200149
:1028F0008161816901F020010491816941F0040145
:102900008161816901F004010491816941F008014C
:1029100081618069DFF8948000F008004FF4C044C2
:102920000490012221464046FEF7B9FCDFF8809072
:10293000012210214846FEF7B2FCDFF878A04EF2E3
:102940006107012239465046FEF7A9FC0094012494
:102950000326CDE90246694640460194FEF7AAFBEC
:10296000CDE90045694648460294FEF7A3FB1020D6
:10297000CDE90004CDE9024669464846FEF79AFBD8
:10298000CDE90074CDE9024669465046FEF792FB58
:102990004FF46070CDE90005694602945046FEF799
:1029A00089FB06B0BDE8F08700100240001001402E
:1029B00000080140000C0140104810B50E490160AC
:1029C0004FF48271416000218160C1604FF4007258
:1029D0000161C0E905121822C0E907214162816244
:1029E0000A21C162FEF7DCFF002803D0BDE81040D9
:1029F000FEF79FB910BD00000030014060000020CC
:102A000010B58EB000240794089409940A940B948E
:102A10001C2168460C94FDF735FD1E484FF080419F
:102A200001604721C0E9011444F61F61C0E90314A5
:102A300080218161FFF78EF908B1FEF77AF94FF432
:102A40008050079007A91348FFF7C4F908B1FEF7B3
:102A500070F91048FFF7C0FA08B1FEF76AF90B9455
:102A60000BA90C480C94FFF741F908B1FEF761F986
:102A70006020CDE9000402940422694605480494CC
:102A8000FFF744FA08B1FEF754F90248FFF710FACD
:102A90000EB010BDB80000200C4810B50A49016006
:102AA0004FF4E1314160002181600C22C160C0E936
:102AB00004128161C161FFF743FC002803D0BDE827
:102AC0001040FEF736B910BD004400400001002060
:102AD00010B50F4C0D480C2120604FF46140606030
:102AE0000020A060E060C4E90401A061E06120462C
:102AF000FFF726FC08B1FEF71CF920684068BDE826
:102B00001040012203490248FFF712BD004800406F
:102B1000480100203006002010B50B4C0122510363
:102B20002046FEF7BCFB012291032046FEF7B7FBCF
:102B3000012220212046FEF7B2FB20460122BDE8FB
:102B400010404021FEF7ABBB000C01402DE9F047DF
:102B5000614D00244FF40057224639462846FEF7BF
:102B60009EFB0122960331462846FEF798FB012280
:102B700020212846FEF793FB012240212846FEF73C
:102B80008EFB80212846FEF785FBDFF850A14FF42D
:102B900080784FF4007978B141462846FEF77AFBF9
:102BA00060B149462846FEF775FB48B10121504601
:102BB000FEF770FB30B106E0012404E0022402E0DD
:102BC000032400E00424012239462846FEF767FB6F
:102BD000002231462846FEF762FB80212846FEF798
:102BE00059FB78B141462846FEF754FB60B149468F
:102BF0002846FEF74FFB48B101215046FEF74AFB3D
:102C000030B106E0052404E0062402E0072400E0D9
:102C10000824012231462846FEF741FB00222021EC
:102C20002846FEF73CFB80212846FEF733FB78B1AF
:102C300041462846FEF72EFB60B149462846FEF77E
:102C400029FB48B101215046FEF724FB30B106E0D4
:102C5000092404E00A2402E00B2400E00C240122F1
:102C600020212846FEF71BFB002240212846FEF7C4
:102C700016FB80212846FEF70DFB78B14146284619
:102C8000FEF708FB60B149462846FEF703FB48B152
:102C900001215046FEF7FEFA30B106E00D2404E0B3
:102CA0000E2402E00F2400E01024012239462846B9
:102CB000FEF7F5FA012231462846FEF7F0FA012226
:102CC00020212846FEF7EBFA012240212846FEF794
:102CD000E6FA2046BDE8F087000C014000080140FC
:102CE000FEE7FEE730B40021084B0A465FF0000023
:102CF00003EBC004401CC0B262548028F8D3491CC6
:102D0000C9B20829F2D330BC00F08EB8B00100205F
:102D100030B5CC0801F0070301259D40EBB2064D0C
:102D200005EBC005C808285C0AB1184302E063EA55
:102D30000000C043285530BDB001002010B500216F
:102D4000AE2000F06CF90021084600F068F900217F
:102D5000102000F064F90021402000F060F900210B
:102D6000812000F05CF90021CF2000F058F900210B
:102D7000A12000F054F90021C82000F050F90021F2
:102D8000A62000F04CF90021A82000F048F900210D
:102D90003F2000F044F90021D32000F040F9002149
:102DA000084600F03CF90021D52000F038F9002158
:102DB000802000F034F90021D92000F030F9002102
:102DC000F12000F02CF90021DA2000F028F9002190
:102DD000122000F024F90021DB2000F020F900216E
:102DE000302000F01CF90021202000F018F900210B
:102DF000022000F014F900218D2000F010F90021CC
:102E0000142000F00CF9FFF76DFF0021BDE8104021
:102E1000AF2000F004B90246012000E05043491EF3
:102E2000C9B2FBD27047000070B5184E002400BF35
:102E300004F1B000C0B2002100F0F1F80021084612
:102E400000F0EDF80021102000F0E9F8FFF7EEFBAC
:102E5000782000F0CFFAFFF725FC402000F0CAFAF6
:102E6000FFF720FC5FF0000506EBC500005D00F0F9
:102E7000C1FAFFF717FC6D1CEDB2802DF4D3FFF7FC
:102E8000F7FB641CE4B2082CD2D370BDB001002063
:102E90002DE9FC4F1C460E4682468B460190082BBE
:102EA0000DD0600700D0012000EBD400610848433A
:102EB000C0B28146203AD0B2009000204BE00620FC
:102EC000F7E7082C13D00C2C18D0102C1BD0182C82
:102ED00044D10098234900EBC00000BF01EB800102
:102EE000002711F80850E80712D00B9A13E0009859
:102EF0001D4900EB400001EB4001F1E700981B4940
:102F000000EB4000EAE71A49009801EB0011E7E7FF
:102F10000B9828B3002231465046FFF7F9FE761C85
:102F20007F1C6D08FFB2F6B2082FDCD30AF1010056
:102F300000F0FF0A082C0AD00199AAEB0100B0EBBF
:102F4000540F04D10BF108008A4600F0FF0B08F182
:102F500001005E46C0B280464845B2D3BDE8FC8F52
:102F60000122D8E762610008D6540008FE56000826
:102F7000725B00082DE9F84F0025DDE90A691F465C
:102F800092468B468046082E00D1022500241CE084
:102F9000381B401EC1B20A20FFF73DFFBAFBF0F01C
:102FA0000A21B0FBF1F201FB1200CDF8009080B1D4
:102FB0003030C2B205EB560101FB0480C0B233468B
:102FC0005946FFF765FF641CE4B2BC42E0D3BDE89C
:102FD000F88F05EB560101FB0480C0B23346302266
:102FE000EEE72DE9F8411E46154688460446079F40
:102FF0000BE03346414620460097FFF749FF082E75
:103000000AD004EB5600C4B26D1C2A78A2F120004D
:103010005E28EED9BDE8F881A41DE4B2F4E770B5EE
:103020000C460546FFF702FB782000F0E3F9FFF7B6
:1030300039FB0CB1402000E0002000F0DBF9FFF785
:1030400031FB284600F0D6F9FFF72CFBBDE87040B5
:10305000FFF70EBB03211420FFF745BB10B514206A
:10306000FFF7F0FB800705D10321BDE810401420D5
:10307000FFF704BC10BD70B50646082188B00024D7
:103080000846FFF730FB00210D20FFF703FC8021ED
:103090000E20FFF728FB93208DF8040020208DF8E8
:1030A000050006A801AB0090022219460C20FFF78C
:1030B00027FB05000DD1002101A8425C7254425C3F
:1030C000491C5440C9B20429F7D3405CA04200D047
:1030D000FE2580210E20FFF7D1FB08B0284670BDE9
:1030E00010B5FFF79DFB00F02FF8FFF7B3FFBDE829
:1030F0001040FFF7B3BF30B50C460546082187B036
:103100000846FFF7F0FA07210D20FFF7C3FB032164
:103110001420FFF7B3FB06A801AB00908DF8045014
:10312000012219460C20FFF7EBFA002809D1BDF85F
:103130001810102905D19DF8041021709DF8051074
:10314000617007B030BD000010B5204C012211465F
:103150002046FEF7A4F80220FDF7E8FE0022012138
:103160002046FEF79CF80220FDF7E0FE0122114602
:103170002046FEF794F80220FDF7D8FE0F2101202B
:10318000FFF788FB0220FDF7D1FE3D211120FFF75C
:1031900081FB1E212D20FFF77DFB00212C20FFF756
:1031A00079FB8D212A20FFF775FB3E212B20FFF7AD
:1031B00071FB40211520FFF76DFBFFF74BFF02204D
:1031C000FDF7B4FEBDE81040FFF748BF000C01401A
:1031D00070470000F0B5104B10481A7802700A2AA8
:1031E00002D900210170F0BD00200D4D11E0002139
:1031F00000EB800400EB800664002E4404EB4107E2
:103200001F44BF787754491CC9B20529F6D3401C26
:10321000C0B29042EBD3F0BD00F0010800000020E6
:103220002C0000200E4A002102EB410393F8663087
:103230004354491CC9B20429F6D30178092908D896
:103240004178092905D88178092902D8C178092946
:1032500004D90021017041708170C1707047000075
:1032600000F001082DE9F041002780463C46144D4E
:10327000144E09E004EB8400284405224146FDF782
:103280003FF838B1641CE4B230788442F2D3384657
:10329000BDE8F0813078411E0AE000BF04EB8402F3
:1032A0002A44641CD2F805301360537A1371E4B2D7
:1032B0008C42F3DB401E3070012700F0BDFCE6E7D6
:1032C0002C000020000000200148FEF7F9BA0000A1
:1032D0006000002001B582B00A200090012301AAFD
:1032E00002A90348FEF7F6FB9DF804000EBD00009E
:1032F0006000002010B5406A0021C187C186FEF73A
:10330000DDFA10BDF8B515460E460B460092044690
:103310000122022100F010F840B93346002280213A
:103320002046009500F008F8002804D0606D40F0B9
:10333000200060650320F8BD2DE9F8431E46914644
:1033400088460446089DFDF7AFFF401B351AFDF780
:10335000ABFF074625480068C0F3CB30684338E030
:10336000701C37D0FDF7A0FFC01BA84203D215B1D7
:10337000009860B32CE02068416821F0E0014160D2
:103380006068B0F5827F0BD1A068B0F5004F02D025
:10339000B0F5806F04D12068016821F04001016020
:1033A000A06AB0F5005F09D12068016821F40051DE
:1033B00001602068016841F400510160012084F837
:1033C0005100002084F850000320BDE8F883002558
:1033D000401E00902068816838EA010004D0002176
:1033E0004945BDD10020F0E70121F9E72000002088
:1033F000704700002DE9F041124F002405464FF4BC
:1034000080487E14280601D5012200E000224146B2
:103410003846FDF744FFFFF761F90122314638468F
:10342000FDF73DFFFFF75AF9002231463846FDF718
:1034300036FF6806641C050EE4B2082CE2D3BDE832
:10344000F081000000100140FDF734BF30B58FB0AF
:1034500028216846FDF716F814210AA8FDF712F88E
:1034600001210804CDE900100024029402250491F2
:10347000CDE907504FF4E01009906846FEF78EF84A
:1034800008B172B6FEE70F20CDE90A054FF480605F
:10349000CDE90C4002210AA80E94FDF7A3FF0028F5
:1034A00001D072B6FEE70FB030BD7047F0B50268CC
:1034B000194B1A4C1A4D4FF08047984205D0B8422C
:1034C00003D0A04201D0A84203D122F070064A687E
:1034D0003243984205D0B84203D0A04201D0A8425E
:1034E00003D122F44074CA6822434C6922F080025E
:1034F000224302608A68C2620A688262984201D1ED
:1035000009690163012141610169C90703D00169AA
:1035100021F001010161F0BD002C014000040040D8
:103520000008004010B501F01F030121046A994012
:103530008C430462016A9A401143016210BD10B5C8
:10354000846842EA032224F47F440A4322438260CF
:1035500010BD826822F070020A4342F007018160C8
:103560007047000030B5036A026A22F0010202626D
:103570004268846924F073050C682C4323F002052B
:103580008B682B430A4DA8420BD123F00805CB686A
:1035900022F440722B434D6923F0040315438A69DA
:1035A0002A434260846149684163036230BD000080
:1035B000002C014030B5026A036A23F01003036255
:1035C000436884690D6824F4E64444EA05248D6860
:1035D00022F0200242EA05120B4DA8420ED1CD681E
:1035E00022F0800242EA05124D6923F4406343EA67
:1035F00085038D6922F0400243EA850343608461BC
:1036000049688163026230BD002C014030B5036A15
:10361000026A22F4807202624268C46923F4007371
:1036200024F073050C682C438D6843EA05230C4D88
:10363000A8420ED1CD6823F4006343EA05234D6907
:1036400022F4405242EA05128D6923F4806342EA73
:1036500005124260C4614968C163036230BD000065
:10366000002C014030B5046A026A22F480520262E2
:103670004268C3690D6823F4E64343EA05238D6875
:1036800024F4005444EA0534064DA84204D14D699F
:1036900022F4804242EA85124260C36149680164B3
:1036A000046230BD002C014010B5036A046A24F0A6
:1036B00001040462846924F0F00444EA021423F053
:1036C0000A020A438461026210BD10B5036A046AEB
:1036D00024F010040462846923F0A00324F47044ED
:1036E00044EA023243EA01118261016210BD10B561
:1036F000406A0021C185C184FEF7EBFC10BD016862
:103700000C3151E8002F22F4907241E80023002B85
:10371000F5D10168143151E8002F22F0010241E88F
:103720000023002BF5D1016B012909D101680C316F
:1037300051E8002F22F0100241E80023002BF5D1C0
:10374000202180F8421000210163704708B590F8ED
:103750004210222901D0022008BD82684FF4805314
:103760009A4201D1016921B1816A9A421BD04AB1C2
:103770000AE00268816A5268C2F308020A80816A1C
:10378000891C08E0026972B10268526802F07F0287
:103790000A70816A491C8162C18D491E0904090CA5
:1037A000C18503D01BE002685268F1E70168CA686E
:1037B00022F02002CA600168CA6822F48072CA60DE
:1037C00001684A6922F001024A61202180F8421012
:1037D00000214163026B012A03D0FEF7B7FE0020EF
:1037E00008BD016301680C3151E8002F22F010027E
:1037F00041E80023002BF5D101680A68D20602D502
:103800000A6849680091818DFEF762FCE7E70000D5
:1038100070B5044600680169E26821F44051114323
:1038200001612169A0680843616908432168CA6889
:1038300041F20C639A430243CA6020684169A2695D
:1038400021F44071114341611E492068884202D130
:10385000FDF76EFE01E0FDF75BFE00EBC00101EB42
:103860000012606864218000B2FBF0F3B3FBF1F357
:103870006FF018067343B2FBF0F5B2FBF0F605EB00
:103880008305322303EB0515B5FBF1F5B6FBF1F625
:1038900005F0F00505EB0615B2FBF0F6B2FBF0F013
:1038A000B0FBF1F06FF01802504306EB800003EB21
:1038B0000010B0FBF1F0216800F00F002844886090
:1038C00070BD00000038014081628285C285002100
:1038D0004164222180F84210016921B10168CA685F
:1038E00042F48072CA6001684A6942F001024A618A
:1038F0000068C16841F02001C160002070472DE9D7
:10390000F843984617460D460446089E24E0701C6E
:1039100022D0FDF7C9FCA0EB0800B0421AD8CEB106
:103920002068C168490717D5802D15D0402D13D0C8
:103930000168C94309070FD4016800254068009059
:103940002046FFF7DCFE0820606484F84050012028
:10395000BDE8F8830320FBE72068006835EA000033
:1039600004D00020B842D2D00020F1E70120F9E7CE
:103970000148FEF7AFBB0000000100200148FEF740
:10398000A9BB000048010020FEE70000FEB5FFF7DC
:10399000A9F901240021082366A208460094FFF734
:1039A00020FB082367A2102100200094FFF719FBD9
:1039B000FFF73AFA02E00A20FDF7B8FAFFF7C6F877
:1039C0000028F8D10546064602AF0290FFF7BEF880
:1039D000F0B3102807D0042D2AD20022411E02295C
:1039E00005D802460EE0042D22D1012620E0431F17
:1039F000022B01D8CAB205E0A0F10901022903D8BF
:103A0000801EC2B2092A13D87A550820CDE90004D5
:103A100005EB85008006000E01230821FFF7AAFAB6
:103A2000FFF702FA6D1CEDB202E00A20FDF77EFA04
:103A3000FFF78CF80028F8D16420FDF777FA002E04
:103A4000C4D00125454900203A5C0B5C9A4200E055
:103A500002E005D0002507E06420FDF767FAB5E72E
:103A6000401CC0B20428EFD3FFF73CF90021082323
:103A70003BA208460094FFF7B4FAFFF7D5F94FF4DC
:103A80007A70FDF753FA0DB10120FEBDFFF72AF958
:103A90000021082337A208460094FFF7A2FA082362
:103AA00037A2194600200094FFF79BFAFFF7BCF9F4
:103AB0004FF4FA60FDF73AFAFFF714F900210823F2
:103AC00033A208460094FFF78CFA082335A2194662
:103AD00000200094FFF785FA082338A21021002067
:103AE0000094FFF77EFA082339A2182100200094E1
:103AF000FFF777FA08233AA2202100200094FFF76D
:103B000070FA08233BA2282100200094FFF769FAED
:103B100008233EA2302100200094FFF762FA082318
:103B20003FA2382100200094FFF75BFAFFF77CF9F1
:103B30000020FEBD456E7465722050494E20636FB3
:103B400064653A0050726573732023313620746FB8
:103B500020636F6E6669726D000000000600002031
:103B6000566572696679696E672050494E2E2E2E11
:103B70000000000050494E204572726F7200000034
:103B80004163636573732044656E6965640000007A
:103B90005761697420666F72204E464320636172DC
:103BA000640000005761697420666F722066696E58
:103BB0006765727072696E74000000005072657300
:103BC000732023313620666F722050494E0000006A
:103BD000507265737320233420746F205265670020
:103BE00050726573732023313220746F2044656CEA
:103BF0000000000050726573732023313320666F1C
:103C000072204650205265670000000050726573B4
:103C1000732023313520746F2044656C204650009A
:103C2000507265737320233820746F204368616E6F
:103C300067652050494E00002DE9F04786B000240A
:103C40000494FDF723FA1D4D0120CDE9025004A98B
:103C500000946846FDF77CF958BB194C00232946AF
:103C600022780120FDF7D2F918BBDFF8508000253B
:103C7000DFF850A008F10208A14616E005EB850028
:103C800000EB0A07002405EB8500460006EB440123
:103C90003A5D414400230120FDF7B8F948B9641C9E
:103CA000E4B2052CF2D36D1CEDB299F80000854208
:103CB000E4D3FDF7A1F906B0BDE8F08700F00108F4
:103CC000000000202C0000202DE9F04F85B00024DA
:103CD00081460494FDF7DAF9254D0120CDE9025023
:103CE00004A900946846FDF733F9E0BB214C00239A
:103CF000294622780120FDF789F9A0BBDFF8708002
:103D00000025DFF874B008F10208A24616E000BFF3
:103D100005EB850000EB0B0705EB8500460006EB85
:103D200044013A5D414400230120FDF76FF9D0B909
:103D3000641CE4B2052CF2D36D1CEDB29AF80000BD
:103D40004FF000048542E3D3094D663519F804208D
:103D500005EB440100230120FDF758F918B9641C54
:103D6000E4B2042CF2D3FDF747F905B0BDE8F08FBB
:103D700000F00108000000202C0000200907090EB7
:103D8000002804DB00F1E02080F80014704700F008
:103D90000F0000F1E02080F8141D704792B0FDF78D
:103DA00091FAFFF753FBFEF78FFDFEF705FEFEF7D6
:103DB0008FFEFEF771FEFEF723FEFEF7BFFF012424
:103DC00000210823F9A208460094FFF70AF9FFF73B
:103DD0002BF84FF47A70FDF7A9F8F84D0022610333
:103DE0002846FDF75CFA0022A1032846FDF757FAA2
:103DF000DFF8CCA340F2DC5BDAF80010C1F838B091
:103E000004215046FEF716F9FFF76AF9FCF7DEFDCC
:103E1000FFF7E0F9EB48FFF705FAFEF763FF002133
:103E20000823E9A208460094FFF7DBF8FEF7FCFF41
:103E3000A01E099009A8FCF78FFD4FF4FA65A8B100
:103E4000FEF750FF00210823E4A208460094FFF784
:103E5000C8F80823E5A2194600200094FFF7C1F82E
:103E6000FEF7E2FF2846FDF761F8FEE7FEF73AFFAE
:103E70000021A1460823D9A208460094FFF7B1F813
:103E80000823DCA2194600200094FFF7AAF8FEF7E9
:103E9000CBFF4FF4FA60FDF749F8FEF723FF00214E
:103EA0000823D7A208460094FFF79BF80823D9A25D
:103EB000194600200094FFF794F80823DBA2102194
:103EC00000200094FFF78DF80823DDA218210020C0
:103ED0000094FFF786F80823DDA22021002000943B
:103EE000FFF77FF80823DFA2282100200094FFF7C6
:103EF00078F80823E1A2302100200094FFF771F840
:103F0000FEF792FFFEF708FEAE4C4FF00008A41F2C
:103F10000A2301220AA9DE48FEF7B2FA88B99DF801
:103F200028000A2839D00D2837D06178042908D212
:103F3000302806D3392804D8A24A08325054491CE4
:103F40006170FEF703FE0546A078854201F06D80A2
:103F5000002D01F06B80042D7ED00C2D7DD00D2D19
:103F60007CD0082D7BD00F2D7AD0102D00F0468705
:103F7000FEF7B8FE00214E460823C6A20846CDF83B
:103F80000090FFF72EF80820CDE9000602232A460C
:103F900000212820FEF7EEFFB1E26078042828D146
:103FA000884B0020874908331A5C0D5C303AAA42DE
:103FB00020D01422B9A10CA8FCF732FA0CA8FCF707
:103FC000CBF982B24FF47A730CA9B148FEF7DCFA50
:103FD0007A4E4FF40045002229463046FDF75FF93E
:103FE00040F6B830FCF7A2FF012229463046FDF723
:103FF00056F977E0401CC0B20428D5D3FEF772FE14
:1040000000214D460823AAA20846CDF80090FEF7ED
:10401000E8FF0823A9A2194600200095FEF7E1FF5A
:104020000823A9A2102100200095FEF7DAFFFEF771
:10403000FBFEDAF800004FF4FA7756468763780003
:10404000FCF774FF3168C1F838B07800FCF76EFFF8
:1040500030688763780004E04BE0A7E153E221E396
:10406000FEE3FCF763FF7800FCF760FFFEF73AFE23
:104070000021082362A208460095FEF7B2FF08233C
:1040800064A2194600200095FEF7ABFF082367A243
:10409000102100200095FEF7A4FF082368A2182134
:1040A00000200095FEF79DFF082369A22021002033
:1040B0000095FEF796FF08236AA2282100200095AC
:1040C000FEF78FFF08236DA2302100200095FEF738
:1040D00088FF082380A2382100200095FEF781FF89
:1040E000FEF7A2FE84F80180C4F80E8084F81280E6
:1040F00027E7FFF74BFC00283FF40AAFFEF7F2FD7D
:1041000000214E4608237AA20846CDF80090FEF71B
:1041100068FF08237AA2194600200096FEF761FF87
:10412000FEF782FE02E00A20FCF700FFFEF70EFD1C
:104130000028F8D1CDF83080CDF80880CDF80C807B
:104140000CA92620FEF7D7FF18B902A8FEF793FFA7
:1041500018B16420FCF7EAFEF2E7FEF7C3FD002188
:10416000B146082369A208460096FEF73AFF0026EA
:104170000827CDE9007902A80223825D06EB4600FC
:10418000C006000E1021FEF7F5FE761CF6B2042ED6
:10419000EFD3FEF749FE02A8FCF7ACFD20B10823DF
:1041A0005CA2CDF80090CAE0BEE00000496E6974E0
:1041B00069616C697A696E672E2E2E00000C0140D1
:1041C000B800002006000020436865636B696E67D5
:1041D0002041533630382E2E2E0000004153363009
:1041E000382048616E647368616B65004661696C74
:1041F00065642100537563636573732100000000DB
:104200005761697420666F72204E46432063617265
:10421000640000005761697420666F722066696EE1
:104220006765727072696E74000000005072657389
:10423000732023313620666F722050494E000000F3
:10424000507265737320233420746F2052656700A9
:1042500050726573732023313220746F2044656C73
:104260000000000050726573732023313320666FA5
:10427000722046502052656700000000507265733E
:10428000732023313520746F2044656C2046500024
:10429000000100204B65793A2000000050617373E3
:1042A000776F7264204572726F720D0A0000000011
:1042B000426C7565746F6F746800000056657269B2
:1042C0006669656400000000446F6F7220556E6C73
:1042D0006F636B6564000000507265737320233850
:1042E00020746F204368616E67652050494E00005E
:1042F000506C616365204E46432043617264000048
:10430000746F205265676973746572004E4643206E
:1043100049443A00416C726561647920526567696D
:10432000737465726564000002A8FCF7C7FC4FF067
:104330000803CDF8009008B1F8A200E0FDA2182112
:104340000020FEF74EFEFEF76FFD4FF4FA60FCF71B
:10435000EDFD6420FCF7EAFDFEF7C4FC4E460823A1
:10436000AFF2641200210846CDF80090FEF739FE46
:104370000823AFF26012194600200096FEF731FEC6
:104380000823AFF25812102100200096FEF729FEF4
:104390000823AFF25412182100200096FEF721FEE8
:1043A0000823AFF2541220210096EAE3FFF7EEFA59
:1043B00000283FF4ADADFEF795FC4E460823AFF262
:1043C000D00200210846CDF80090FEF70AFE08232F
:1043D000DCA2194600200096FEF703FEFEF724FD3E
:1043E00002E00A20FCF7A2FDFEF7B0FB0028F8D19E
:1043F000CDF83080CDF80880CDF80C800CA92620AF
:10440000FEF779FE18B902A8FEF735FE18B1642050
:10441000FCF78CFDF2E7FEF765FCB1460823AFF22E
:104420001412002108460096FEF7DBFD002608273F
:10443000CDE9007902A80223825D06EB4600C006A2
:10444000000E1021FEF796FD761CF6B2042EEFD377
:10445000FEF7EAFC02A8FCF74DFC00284AD002A8AF
:10446000FEF700FF68B10823B9A2CDF8009018212B
:104470000020FEF7B6FDFEF7D7FC4FF4FA60FCF71C
:1044800055FD6420FCF752FDFEF72CFC4E46082338
:10449000AFF2942200210846CDF80090FEF7A1FD6E
:1044A0000823AFF29022194600200096FEF799FDEE
:1044B0000823AFF28822102100200096FEF791FD1C
:1044C0000823AFF28422182100200096FEF789FD10
:1044D0000823AFF28422202100200096FEF781FD00
:1044E0000823AFF28022282100200096FEF779FDF4
:1044F0000096A6E008239CA2CDF80090B7E7FEF74F
:1045000093FCA570F3E3FFF741FA00283FF400ADF8
:10451000FEF7E8FB00214F46082397A20846CDF896
:104520000090FEF75EFD082396A219460020009732
:10453000FEF757FDFEF778FC02E00A20FCF7F6FCD8
:10454000FEF704FB0028F8D1FEF7CCFB002108237E
:1045500089A208460097FEF744FD082389A2194660
:1045600000200097FEF73DFD082389A210210020BE
:104570000097FEF736FD082389A218210020009736
:10458000FEF72FFDFEF750FC40F6B830FCF7CEFCEE
:10459000A088FCF771F8060058D0FEF7A3FB0021B5
:1045A000082378A208460097FEF71BFD0823AFF208
:1045B000C432194600200097FEF713FD3046FCF781
:1045C00095F802460823102100200097FEF709FD08
:1045D000FEF72AFC4FF4FA60FCF7A8FCFEF782FB1A
:1045E0000823AFF2E432002108460097FEF7F9FCF9
:1045F0000823AFF2E032194600200097FEF7F1FCE5
:104600000823AFF2D832102100200097FEF7E9FC12
:104610000823AFF2D432182100200097FEF7E1FC06
:104620000823AFF2D432202100200097FEF7D9FCF6
:104630000823AFF2D032282100200097FEF7D1FCEA
:1046400000970823AFF2CC3230219AE2FEF74AFB02
:10465000002108234BA208460097FEF7C2FC08235E
:10466000AFF27042194600200097FEF7BAFCA2880C
:104670004EA101A8FBF7C0FD082301AA10210020CC
:104680000097FEF7AEFCFEF7CFFB4FF4FA60FCF7A5
:104690004DFCA088401C80B2A080B0F5967F9DD3D1
:1046A000A7809BE7FEF71EFB4E460823AFF2CC32F5
:1046B00000210846CDF80090FEF793FCFEF7B4FB0E
:1046C00002E00A20FCF732FCFEF740FA0028F8D19D
:1046D000FEF708FB0021B146082336A208460096E3
:1046E000FEF77FFC082338A2102100200096FEF779
:1046F00078FCFEF799FB00263746CDF8308000BFE6
:10470000FEF724FA00286BD010286CD0042E69D252
:104710000022411E02296AD8024673E05265676989
:10472000737465726564205375636365737366752E
:104730006C6C790053746F726167652046756C6CA0
:1047400000000000746F2044656C65746500000013
:1047500044656C6574656420537563636573736643
:10476000756C6C7900000000496E76616C6964209C
:10477000436172640000000046696E676572707282
:10478000696E7400456E726F6C6C6D656E740000BE
:10479000506C6163652066696E6765720000000099
:1047A0006F6E2073656E736F7200000049443A208B
:1047B00025640000456E7465722063757272656EC3
:1047C000742050494E3A00005072657373202331B3
:1047D0003620746F20636F6E6669726D0000000092
:1047E00098E000E002E0042E23D1012721E0431FDE
:1047F000022B01D8CAB205E0A0F10901022903D8B1
:10480000801EC2B2092A14D80CA8012382550820A0
:10481000CDE9000906EB86008006000E0821FEF7B0
:10482000A9FBFEF701FB761CF6B202E00A20FCF7BA
:104830007DFBFEF78BF90028F8D16420FCF776FBAE
:10484000002F3FF45DAFFC4A00200CA9165C0B5C06
:10485000B34263D0FEF746FA4D460823F7A200E0C4
:1048600093E100210846CDF80090FEF7BAFB08233B
:10487000F5A2194600200095FEF7B3FBFEF7D4FA27
:104880004FF4FA60FCF752FBFEF72CFA0823AFF264
:104890009062002108460095FEF7A3FB0823AFF2C3
:1048A0008C62194600200095FEF79BFB0823AFF2AF
:1048B0008462102100200095FEF793FB0823AFF2DD
:1048C0008062182100200095FEF78BFB0823AFF2D1
:1048D0008062202100200095FEF783FB0823AFF2C1
:1048E0007C62282100200095FEF77BFB0823AFF2B5
:1048F0007462302100200095FEF773FB0823AFF2AD
:104900002862382100200095FEF76BFBFEF78CFA39
:10491000FFF7FEBA6420FCF709FBF1E6401CC0B2C9
:10492000042893D3FEF7DEF900214F460823CAA2DC
:104930000846CDF80090FEF754FB0823AFF278123A
:10494000102100200097FEF74CFBFEF76DFA0026C1
:10495000CDF80C80CDF83860FEF7F8F8F0B31028E9
:1049600007D0042E2CD20022411E022906D802466E
:104970000FE0042E24D101200E9021E0431F022BD2
:1049800001D8CAB205E0A0F10901022903D8801EAE
:10499000C2B2092A14D803A8012382550820CDE900
:1049A000000706EB86008006000E0821FEF7E2FAFB
:1049B000FEF73AFA761CF6B202E00A20FCF7B6FAE5
:1049C000FEF7C4F80028F8D16420FCF7AFFA0E987F
:1049D0000028C1D0FEF786F9B94600E023E00021A7
:1049E0003E460823A0A208460097FEF7FAFA0823DD
:1049F000AFF22C22102100200096FEF7F2FAFEF70B
:104A000013FA00263746CDF8348000BFFEF79EF833
:104A100078B310280BD0042E2FD20022411E022979
:104A200009D8024612E06420FCF780FA94E7042ECD
:104A300023D1012721E0431F022B01D8CAB205E090
:104A4000A0F10901022903D8801EC2B2092A14D894
:104A50000DA80821825506EB8600CDE900198006D5
:104A6000000E0123FEF786FAFEF7DEF9761CF6B299
:104A700003E021E00A20FCF759FAFEF767F8002866
:104A8000F8D16420FCF752FA002FBFD0002003A910
:104A90000DAA0B5C165CB34212D0FEF723F900217D
:104AA0004E46082375A20846CDF80090FEF799FA05
:104AB000082376A200961CE06420FCF737FAA5E7ED
:104AC000401CC0B20428E4D30398C4F806005A4836
:104AD000FFF7FAF8FEF706F900214E4608236EA20A
:104AE0000846CDF80090FEF77CFA0823AFF6FC02EA
:104AF000009608210020FEF774FAFEF795F94FF4AE
:104B0000FA60FCF713FAFEF7EDF84E460823AFF60D
:104B1000101200210846CDF80090FEF762FA082333
:104B2000AFF61012194600200096FEF75AFA082335
:104B3000AFF60812102100200096FEF752FA082363
:104B4000AFF60412182100200096FEF74AFA082357
:104B5000AFF60412202100200096FEF742FA082347
:104B6000AFF60012282100200096FEF73AFA08233B
:104B7000AFF6F802302100200096FEF732FA0096D8
:104B80001AE10020FEF72DFAB9E4FEF7FFFE002837
:104B90003FF4BEAEFEF7A6F84F460823AFF2284218
:104BA00000210846CDF80090FEF71BFA08233DA22D
:104BB000194600200097FEF714FAFEF735F902E0D7
:104BC0000A20FCF7B3F9FDF7C1FF0028F8D1FEF782
:104BD00089F80823AFF24842002108460097FEF703
:104BE00000FA082332A2194600200097FEF7F9F9CF
:104BF000FEF71AF940F6B830FCF798F9ADF80480E2
:104C0000ADF8088002A901A8FCF742F890B1FEF7C0
:104C100069F80021082323A208460097FEF7E1F96E
:104C20000823AFF63822194600200097FEF7D9F97D
:104C3000082343E05CE000000600002050494E20BD
:104C40004572726F720000004163636573732044A4
:104C5000656E696564000000456E746572206E655E
:104C6000772050494E3A0000436F6E6669726D209E
:104C70006E65772050494E3A0000000050494E20A2
:104C80004D69736D6174636800000000547279208F
:104C9000616761696E00000050494E204368616E93
:104CA0006765640044656C6574696F6E00000000A0
:104CB000746F2064656C657465000000FEA21021AD
:104CC00000200097FEF78DF9FEF7AEF84FF400468E
:104CD00000223146FD48FCF7E2FA40F6B830FCF716
:104CE00025F901223146F948FCF7D9FA25E09FE180
:104CF0000121BDF80400FBF7A0FC060061D0FDF720
:104D0000F1FF0823AFF26402002108460097FEF786
:104D100068F90823AFF62C32194600200097FEF7F9
:104D200060F93046FBF7E2FC0246082300971021A9
:104D30000020FEF756F9FEF777F84FF4FA60FCF71B
:104D4000F5F8FDF7CFFF0823AFF64C3200210846F7
:104D50000097FEF746F90823AFF6483219460020BF
:104D60000097FEF73EF90823AFF6403210210020ED
:104D70000097FEF736F90823AFF63C3218210020E1
:104D80000097FEF72EF90823AFF63C3220210020D1
:104D90000097FEF726F90823AFF6383228210020C5
:104DA0000097FEF71EF90823AFF6303230210020BD
:104DB0000097FEF716F900970823AFF6E422382192
:104DC000DFE6FDF78FFF0823AFF228120021084627
:104DD0000097FEF706F90823AFF6E83219460020DF
:104DE0000097FEF7FEF8BDF80420AFF240610CA872
:104DF000FBF702FA08230CAA009798E7FDF772FF69
:104E000000214E460823B2A20846CDF80090FEF7D6
:104E1000E8F80823AFF25062102100200096FEF758
:104E2000E0F8FEF701F802E00A20FCF77FF8FDF752
:104E30008DFE0028F8D10026CDF83880FDF786FEDB
:104E400000287CD0102807D0042E78D20021421EE2
:104E5000022A75D801468EE0042E75D10126A0499C
:104E600000200EAA0F5C135CBB4201D0002603E0B9
:104E7000401CC0B20428F5D3FDF734FF00214F4693
:104E8000082398A20846CDF80090FEF7AAF8FDF78F
:104E9000CBFF4FF47A70FCF749F846B3FDF722FFD9
:104EA0000021082394A208460097FEF79AF80823E9
:104EB000AFF6EC32194600200097FEF792F8FDF7A6
:104EC000B3FFDAF800004FF4FA77564687637800AC
:104ED000FCF72CF83168C1F838B07800FCF726F8F8
:104EE000306887637800FCF721F8780026E0FDF74A
:104EF000F9FE0823AFF2BC22002108460097FEF716
:104F000070F80823AFF2C022194600200097FEF780
:104F100068F8FDF789FF6D4F4FF4004600223146D7
:104F20003846FCF7BCF940F6B830FBF7FFFF01222A
:104F300031463846FCF7B3F94FF4FA6002E04EE030
:104F40000BE001E0FBF7F2FF5FF03200FBF7EEFF52
:104F5000FDF7FCFDD8B30A20F8E7431F022B01D868
:104F6000D1B205E0A0F10902022A02D8811EC9B21D
:104F700009B90E2833D10EA88155761CF6B2FDF77B
:104F8000B1FE0021082352A20846CDF80090FEF79A
:104F900028F800270DE00821CDE900190EA801230B
:104FA000C25D0A2000EB0710C0B2FDF7E3FF7F1CD3
:104FB000FFB2B742EFD30823AFF2F4721021002002
:104FC000CDF80090FEF70DF8FDF72EFF03E00AE0A4
:104FD0000A20FBF7ABFFFDF7B9FD0028F8D132201E
:104FE000FBF7A4FF2AE7FDF77DFE4E460823AFF648
:104FF000F05200210846CDF80090FDF7F2FF08239B
:10500000AFF6F052194600200096FDF7EAFF08239C
:10501000AFF6E852102100200096FDF7E2FF0823CA
:10502000AFF6E45218210096ABE50DB984F8028082
:10503000CDF82C804646CDF818800BA92620CDF857
:105040001C80FEF758F898B1C4F80A60ADF81060FB
:10505000ADF8146005A904A8FBF71AFE05007DD081
:10506000092D7CD0022D7BD0E078002879D08AE110
:1050700006A8FEF700F80028E8D119490422091D06
:1050800006A8FBF73DF90028E0D0FDF72BFE002134
:1050900008231DA20846CDF80090FDF7A2FF0025C9
:1050A0000A270821CDE9001906A8425D05EB850015
:1050B00007EB8000C0B22FE046696E676572206E14
:1050C0006F7420666F756E6400000000000C014074
:1050D000456E7465722050494E20636F64653A00D6
:1050E00006000020566572696679696E672050492E
:1050F0004E2E2E2E0000000050494E20566572693B
:1051000066696564000000004E4643204361726496
:105110002049443A000000000223FDF72BFF6D1CDC
:10512000042DBEDBFDF780FE0698C4F80A0006A831
:10513000FBF7E0FD4FF00803CDF8009008B3CDA2D7
:1051400010210020FDF74DFFFDF76EFEDAF800009C
:105150004FF4FA7755468763780003E06DE0A6E0E8
:1051600010E115E1FBF7E2FE2968C1F838B07800DC
:10517000FBF7DCFE286887637800FBF7D7FE780032
:105180001AE0AFF23C5210210020FDF72AFFFDF794
:105190004BFEBC4F4FF40045002229463846FCF731
:1051A0007EF840F6B830FBF7C1FE012229463846AA
:1051B000FCF775F84FF4FA60FBF7B8FEFDF792FDC7
:1051C0004D460823AFF6C87200210846CDF800907E
:1051D000FDF707FF0823AFF6C472194600200095BB
:1051E000FDF7FFFE0823AFF6BC72102100200095EA
:1051F000FDF7F7FE0823AFF6B872182100200095DE
:10520000FDF7EFFE0823AFF6B872202100200095CD
:10521000FDF7E7FE0823AFF6B472282100200095C1
:10522000FDF7DFFE0823AFF6AC72302100200095B9
:10523000FDF7D7FEFDF7F8FD08E7E078002877D105
:10524000FDF750FD4D460823AFF6D4220021084655
:10525000CDF80090FDF7C5FE0823AFF260121946A5
:1052600000200095FDF7BDFEBDF81430BDF81020FC
:1052700085A10CA8FAF7C0FF08230CAA1021002072
:105280000095FDF7AEFEFDF7CFFDDAF800104FF404
:10529000FA705646886347003846FBF747FE316888
:1052A000C1F838B03846FBF741FE780029E0E078D5
:1052B000F0BBFDF717FD4D460823AFF64432002141
:1052C0000846CDF80090FDF78CFE082373A219461E
:1052D00000200095FDF785FEFDF7A6FD694F4FF410
:1052E0000046002231463846FBF7D9FF40F6B83079
:1052F000FBF71CFE012231463846FBF7D0FF4FF486
:105300007A70FBF713FEFDF7EDFC00210823664AD7
:1053100008460095FDF765FE634A082314321946D6
:1053200000200095FDF75DFE5F4A08232C3200E067
:1053300029E0102100200095FDF753FE5A4A08236A
:105340004032182100200095FDF74BFE564A0823F5
:105350005032202100200095FDF743FE524A0823D9
:105360006432282100200095FDF73BFE4E4A0823B9
:105370007C32302100200095FDF733FEFDF754FD0F
:10538000E57000E0E6706420FBF7D0FDFEF7C0BDDD
:10539000FDF7A8FC4E460823AFF62442002108463C
:1053A000CDF80090FDF71DFE0823AFF26C72194690
:1053B00000200096FDF715FE2846FBF797F90246F8
:1053C0000823102100200096FDF70BFEFDF72CFDB1
:1053D0002C4F4FF40045002229463846FBF75FFF6B
:1053E00040F6B830FBF7A2FD012229463846FBF70C
:1053F00056FF4FF47A70FBF799FDFDF773FC00211F
:105400000823294A08460096FDF7EBFD264A0823A3
:105410001432194600200096FDF7E3FD224A0823C6
:105420002C32102100200096FDF7DBFD1E4A0823D8
:105430004032182100200096FDF7D3FD1A4A0823B8
:105440005032202100200096FDF7CBFD164A08239C
:105450006432282100200096FDF7C3FD124A08237C
:105460007C32302100200096FDF7BBFDFDF7DCFC0F
:1054700088E70000416363657373204772616E744F
:1054800065640000000C014049443A2025642C204A
:1054900053636F72653A2025640000004E6F7420DC
:1054A000466F756E640000000042000801020203AE
:1054B0000405060708090A0B0C0D0E0F101000005A
:1054C00000000000000001020304060708090000B4
:1054D0000000010203040000000000000000002F93
:1054E000000000000700070000147F147F14002450
:1054F0002A7F2A120062640813230036495522507D
:1055000000000503000000001C22410000004122B1
:105510001C000014083E08140008083E080800009B
:1055200000A0600000080808080800006060000093
:10553000002010080402003E5149453E0000427F11
:105540004000004261514946002141454B3100185D
:1055500014127F10002745454539003C4A4949301F
:1055600000017109050300364949493600064949D9
:10557000291E0000363600000000563600000008E4
:1055800014224100001414141414000041221408C1
:1055900000020151090600324959513E007C1211A6
:1055A000127C007F49494936003E41414122007F3B
:1055B0004141221C007F49494941007F09090901F5
:1055C000003E4149497A007F0808087F0000417F7A
:1055D0004100002040413F01007F08142241007F2C
:1055E00040404040007F020C027F007F0408107F93
:1055F000003E4141413E007F09090906003E4151FC
:10560000215E007F091929460046494949310001B8
:10561000017F0101003F4040403F001F2040201F0C
:10562000003F4038403F00631408146300070870CF
:10563000080700615149454300007F414100005582
:105640002A552A55000041417F000004020102044E
:10565000004040404040000001020400002054543B
:105660005478007F4844443800384444442000388B
:105670004444487F00385454541800087E090102FD
:105680000018A4A4A47C007F080404780000447DD2
:105690004000004080847D00007F1028440000000E
:1056A000417F4000007C04180478007C08040478E2
:1056B00000384444443800FC2424241800182424CE
:1056C00018FC007C080404080048545454200004CA
:1056D0003F444020003C4040207C001C2040201CD7
:1056E000003C4030403C004428102844001CA0A04E
:1056F000A07C004464544C4414141414141400008A
:10570000000000000000000000000000FC0000009D
:10571000000002000000000C020C0200000000006B
:10572000000090D0BCD0BC900003000300001824FF
:10573000FE448C000302070201001824D8B04C80FC
:10574000000300010201C038E438E0000102020158
:105750000202080600000000000000000000000037
:1057600000F80402000000010204000204F8000036
:105770000004020100009060F86090000000010049
:1057800000002020FC20200000000100000000009C
:10579000000000000806000000002020202020005B
:1057A00000000000000000000000000000020000F7
:1057B00000000080601C0200040300000000F804E8
:1057C0000404F8000102020201000008FC000000CD
:1057D000000203020000188444241800030202029D
:1057E000020008042424D80001020202010040B093
:1057F00088FC80000000000302003C242424C40034
:10580000010202020100F824242CC000010202025D
:1058100001000C04E41C0400000003000000D82474
:105820002424D80001020202010038444444F80054
:10583000000302020100000010000000000002004E
:105840000000000020000000000006000000002012
:105850005088040200000000010290909090900097
:105860000000000000000002048850200002010037
:1058700000001804C4241800000002000000F8040E
:10588000E494F80001020202020000E09CF08000B3
:1058900002030000030204FC2424D80002030202D5
:1058A0000100F80404040C0001020202010004FCDF
:1058B0000404F80002030202010004FC24740C003A
:1058C00002030202030004FC24740C000203020021
:1058D0000000F0080444CC4000010202010004FC76
:1058E0002020FC040203000003020404FC04040062
:1058F000020203020200000404FC04040604040380
:10590000000004FC24D00C0402030200030204FC87
:1059100004000000020302020203FC3CC03CFC0045
:1059200003000300030004FC30C4FC040203020073
:105930000300F8040404F80001020202010004FC60
:1059400024241800020302000000F8848404F800F4
:1059500001020207050004FC24649800020302000F
:105960000302182424448C000302020201000C04E8
:10597000FC040C0000020302000004FC0000FC0414
:10598000000102020100047C80E01C04000003000E
:1059900000001CE03CE01C00000300030000049C2D
:1059A000609C0400020300030200041CE01C0400CD
:1059B0000002030200000C84641C040002030202C3
:1059C00003000000FE020200000007040400000EB5
:1059D00030C00000000000010200000202FE0000D2
:1059E000000404070000000402040000000000009E
:1059F0000000000000000000080808080808000077
:105A0000020000000000000000000040A0A0C00054
:105A100000010202030204FC2020C0000003020275
:105A2000010000C02020600000010202020000C04E
:105A30002024FC0000010202030200C0A0A0C0005C
:105A40000001020202000020F824240400020302E4
:105A500002000040A0A0602000070A0A0A0404FC1B
:105A60002020C0000203020003020020E400000026
:105A7000000203020000000020E4000008080807FC
:105A8000000004FC80E02020020302000302040462
:105A9000FC000000020203020200E020E020C0003F
:105AA00003000300030020E02020C00002030200E6
:105AB000030200C02020C00000010202010020E01B
:105AC0002020C000080F0A02010000C02020E000D2
:105AD0000001020A0F0820E040202000020302001B
