:020000040800F2
:10000000900D002091010008F32B00083B2500080B
:10001000F12B0008B10C000899380008000000001E
:100020000000000000000000000000000133000894
:10003000F10C000800000000E1300008593300080E
:10004000AB010008AB010008AB010008AB010008E0
:10005000AB010008AB010008AB010008AB010008D0
:10006000AB010008AB010008AB010008AB010008C0
:10007000AB010008AB010008AB010008AB010008B0
:10008000AB010008AB010008AB010008AB010008A0
:10009000AB010008AB010008AB010008AB01000890
:1000A000AB010008AB010008AB010008AB01000880
:1000B000AB010008AB010008AB010008AB01000870
:1000C000AB010008AB010008AB010008D931000802
:1000D000AB010008AB010008813800088D3800082A
:1000E000AB010008AB010008AB01000800F002F80A
:1000F00000F03FF80AA090E8000C82448344AAF183
:100100000107DA4501D100F034F8AFF2090EBAE880
:100110000F0013F0010F18BFFB1A43F0010318473B
:100120001C6700003C670000103A24BF78C878C103
:10013000FAD8520724BF30C830C144BF04680C60ED
:10014000704700000023002400250026103A28BF35
:1001500078C1FBD8520728BF30C148BF0B60704739
:10016000642900F09180002070471FB51FBD10B5B5
:1001700010BD00F008FA1146FFF7F7FF03F040FC4E
:1001800000F026FA03B4FFF7F2FF03BC00F02EFAEA
:100190000948804709480047FEE7FEE7FEE7FEE71B
:1001A000FEE7FEE7FEE7FEE7FEE7FEE70448054957
:1001B000054A064B70470000BB330008ED000008FD
:1001C00090070020900D0020900900209009002049
:1001D000B2F120030AD5C2F1200320FA02F001FA9D
:1001E00003F321FA02F140EA0300704721FA03F019
:1001F0004FF00001704700000FB41CB5074B06AA72
:100200007B4469460090059800F073F90020694628
:1002100000F082F91CBC5DF814FB0000150300001F
:100220002DE9F0410E460446002020622046E16898
:10023000884730B3252805D0D4E901219047206AAA
:10024000401CF2E7E168204600278847050018D0E7
:10025000A5F14100192802D820354FF40067324635
:10026000294620462760FFF77BFF40B1012804D0D4
:10027000F61D26F007060836D8E7361DD6E72846CD
:10028000DAE7206ABDE8F0812DE9F0410646002456
:1002900010687529314616A510D0AFF300800028EC
:1002A00002DA404213A507E031688A0701D512A59A
:1002B00002E0490704D511A5012401E0AFF3008055
:1002C00000210A2206F1240709E0B0FBF2FCB0FB92
:1002D000F2F302FB1C00303078541846491C002809
:1002E000F3D123462A463046BDE8F04100F0A3B8DA
:1002F000000000002D0000002B0000002000000086
:1003000040EA010310B59B070FD1042A0DD310C892
:1003100008C9121F9C42F8D020BA19BA884201D9E4
:10032000012010BD4FF0FF3010BD1AB1D30703D02C
:10033000521C07E0002010BD10F8013B11F8014BE2
:100340001B1B07D110F8013B11F8014B1B1B01D1FE
:10035000921EF1D1184610BD032A40F2308010F0F1
:10036000030C00F0158011F8013BBCF1020F624450
:1003700098BF11F801CB00F8013B38BF11F8013BE1
:10038000A2F1040298BF00F801CB38BF00F8013B8E
:1003900011F0030300F0C580083AC0F0088051F85E
:1003A000043B083A51F804CBA0E80810F5E7121D09
:1003B0005CBF51F8043B40F8043BAFF30080D20728
:1003C00024BF11F8013B11F801CB48BF11F8012BF4
:1003D00024BF00F8013B00F801CB48BF00F8012B17
:1003E00070474FF0000200B51346944696462039F8
:1003F00022BFA0E80C50A0E80C50B1F12001BFF4DE
:10040000F7AF090728BFA0E80C5048BF0CC05DF843
:1004100004EB890028BF40F8042B08BF704748BF91
:1004200020F8022B11F0804F18BF00F8012B704705
:100430007047704770472DE9F0470D469946924640
:10044000044600F124080168880604D5E06921F01B
:100450001001216000E00120A84201DD471B00E0FF
:100460000027A1697A1902EB0900081AA061207817
:10047000C00602D42046AFF30080002608E0D4E98D
:1004800001211AF806009047206A401C761C206261
:100490004E45F4DB2078C0060AD52046AFF3008035
:1004A00006E0D4E9012130209047206A401C2062F8
:1004B000381EA7F10107F4DC07E0D4E9012118F8A0
:1004C00005009047206A401C2062281EA5F1010506
:1004D000F3DC2046AFF300802078000602D502202E
:1004E000BDE8F0870120FBE701694A1C026108783A
:1004F000704700B58FB0CDE9013100210591054964
:100500007944CDE9031011466846FFF789FE0FB024
:1005100000BD0000E5FFFFFF0A6802F8010B0A605A
:10052000704710B5203AC0F00B80B1E81850203A5F
:10053000A0E81850B1E81850A0E81850BFF4F5AF83
:100540005FEA027C24BFB1E81850A0E8185044BF0D
:1005500018C918C0BDE810405FEA827C24BF51F87A
:10056000043B40F8043B08BF7047D20728BF31F86E
:10057000023B48BF11F8012B28BF20F8023B48BFBF
:1005800000F8012B7047754600F02CF8AE460500C8
:100590006946534620F00700854618B020B5FFF79E
:1005A00005FEBDE820404FF000064FF000074FF079
:1005B00000084FF0000B21F00701AC46ACE8C00981
:1005C000ACE8C009ACE8C009ACE8C0098D4670478A
:1005D00010B50446AFF300802046BDE81040FFF799
:1005E000D1BD0000004870473007002001491820A5
:1005F000ABBEFEE726000200704700B58BB0020AD2
:100600008DF824208DF82500080A8DF826000AA808
:100610008DF82710009001AB042209A90C2000F0EE
:1006200043FA38B9BDF828000B2803D39DF80D0014
:100630000BB000BDFF20FBE710B5044600F056F9F3
:1006400000281BD1012000F01AF8002816D14FF421
:10065000FA6000F04BFC00F049F900280ED10220AE
:1006600000F00DF8002809D100F0DAF9002805D1D2
:100670002146BDE81040012000F0CEBA10BD00B503
:100680008BB001AB8DF824000AA80090012209A9C3
:10069000022000F009FA38B9BDF828000B2803D36E
:1006A0009DF80D000BB000BDFF20FBE727284FD2BF
:1006B000DFE800F01416181A1C1E20222426282A0F
:1006C0002C2E303234364E384E3A4E4E3C3E40425E
:1006D000444E4E4E4E4E4E46484A4C001DA070476A
:1006E0001DA0704720A0704722A0704725A070472A
:1006F00028A070472BA070472EA0704731A07047EC
:1007000033A0704735A0704737A0704739A07047B5
:100710003BA070473DA0704740A0704743A0704782
:1007200045A0704747A0704748A070474BA070474E
:100730004DA0704750A0704752A0704755A0704719
:1007400059A070475BA070475EA0704760A07047DB
:1007500062A070474F4B0000526563656976652063
:100760006572726F720000004E6F2066696E676579
:100770007200000047657420696D616765206661DD
:10078000696C0000496D61676520746F6F20647249
:1007900079000000496D61676520746F6F2077658F
:1007A00074000000496D61676520746F6F206E6F83
:1007B0006973790046656174757265206661696C5C
:1007C000000000004E6F206D61746368000000003F
:1007D0004E6F20666F756E64000000004D65726795
:1007E00065206661696C00004F7665722072616EEB
:1007F0006765000052656164206572726F72000067
:1008000055706C6F6164206661696C005265636548
:1008100069766520646174610000000055706C6F3A
:10082000616420696D6167650000000044656C6566
:100830007465206661696C00436C65617220666155
:10084000696C00004E6F207061737300496E7661B1
:100850006C696420696D6167650000005772697496
:100860006520666C617368004E6F20646566696E12
:100870006974696F6E000000496E76616C6964206E
:100880007265670057726F6E67206E6F7465706176
:10089000640000004661696C20636F6D6D756E6960
:1008A000636174696F6E00004E6F2066696E6765E4
:1008B000722032005365636F6E6420696D616765F5
:1008C000000000004E6F742073616D650000000031
:1008D000426164207061636B61676500556E6B6E89
:1008E0006F776E206572726F7200000000B58BB07A
:1008F00009A80022009001AB1146012000F0D4F8B5
:1009000038B9BDF824000B2803D39DF80D000BB0B7
:1009100000BDFF20FBE70000F0B58BB006460024C9
:100920004FF49675304600F019F9002820D028467B
:1009300000F0DCFA641CE4B2032CF3D3002401AF12
:10094000002202AB11464020009700F0ADF888B9B4
:10095000BDF804000F280DD3DDF812009DF8151026
:1009600000BA20F0FF0008430749306048600020CB
:100970000BB0F0BD284600F0B9FA641CE4B2022CBA
:10098000DED3FF20F4E700002000002010B502F0C5
:1009900027F84FF47A7000F0A9FA642000F0A6FA64
:1009A0004FF4FA74204600F0A1FA2046BDE810404A
:1009B00000F09CBA2DE9F0478946824600F054FCCD
:1009C000154C002605462680DFF8508041F2883716
:1009D0001AE02088A8B12088092812D3B8F80700A7
:1009E000218840BA093081420BD322880B495046F6
:1009F000FFF7B2FC2188A9F8001026800020BDE88E
:100A0000F087012000F072FA00F02EFC401BB84283
:100A1000DFD32680FF20F2E72000002030060020F0
:100A200000B58BB009A80022009001AB114605204B
:100A300000F03AF838B9BDF824000B2803D39DF82C
:100A40000D000BB000BDFF20FBE730B58DB01C469C
:100A5000109D8DF80400080A8DF805008DF8061029
:100A6000100A8DF807000BA88DF80820009003AB42
:100A7000052201A9042000F017F890B9BDF82C0058
:100A80000F280ED39DF8150038B9BDF8160040BAEE
:100A90002080BDF8180040BA28809DF815000DB0E0
:100AA00030BDFF20FBE70000F0B5C1B014000246E6
:100AB0004FF0EF00469F8DF800001E4625484FF08E
:100AC00001038DF8013040686D464FEA106C8DF8D7
:100AD00002C04FEA104C8DF803C04FEA102C8DF87D
:100AE00004C08DF8050004F103008DF806304FEACC
:100AF00010238DF808008DF807308DF809204FF08D
:100B00000A0006D005F10A002246FFF725FC0A3448
:100B1000A0B20022062104E06B5C491C1A4492B288
:100B200089B28142F8D3110A2954401C80B241F2A3
:100B300088332A54401C82B26946074801F0ACFC55
:100B400036B12FB139463046FFF734FF41B0F0BD22
:100B50000020FBE720000020440100202DE9FE4397
:100B6000814600F081FB0646EF20284C8DF80000FE
:100B700001218DF801106068020E8DF80220020C30
:100B80008DF80320020A8DF804208DF80500002559
:100B90008DF806108DF807508DF80850258041F229
:100BA00088373B4609226946194801F075FCC82080
:100BB00000F09CF9DFF85C8011E0208809280BD355
:100BC00098F800104046EF2906D14178012903D159
:100BD00098F8060007280BD0012000F087F900F0F4
:100BE00043FB801BB842E8D32580FF20BDE8FE838D
:100BF000D8F8020098F8051000BA20F0FF0008436A
:100C0000C9F80000606025800020EFE72000002088
:100C1000440100203006002000B58BB001AB8DF8F8
:100C20002400080A8DF825000AA88DF826100090E7
:100C3000032209A90620FFF737FF38B9BDF82800BD
:100C40000B2803D39DF80D000BB000BDFF20FBE780
:100C500038B50C460546FFF749FE00280CD10120A7
:100C6000FFF70DFD002807D12B464FF496720021A7
:100C700001200094FFF7E9FE38BD00000A4A10B5D4
:100C800011780A2901D3002010BD01EB8103074C24
:100C9000491C234404681C6000791871117002F02B
:100CA000FDFD012010BD00000000002028000020F4
:100CB000FEE700002DE9F041074600240A4E0B4DE7
:100CC0000AE000BF04EB8400304405223946FFF7F8
:100CD00017FB38B1641CE4B228788442F2D30020B8
:100CE000BDE8F0810120FBE7280000200000002083
:100CF000704772B6FEE7000006490020C86106484A
:100D0000016941F004010161016941F040010161A3
:100D1000704700009001002000200240064A002198
:100D2000D16106490A6942F002020A614861086914
:100D300040F0400008617047900100200020024010
:100D4000044B0022DA61044A136943F00103136182
:100D500001807047900100200020024014480022CA
:100D6000C168CB06134904D5CA6942F00202CA61C0
:100D70001022C3685B0705D5CB6943F00103CB6143
:100D800042F00402C369DB0707D0CB6943F00403D8
:100D9000CB61C16921F00101C161A2F58071013906
:100DA00001D0C2607047C16921F00101C161704783
:100DB000002002409001002070B5054600F054FA72
:100DC0000646114C09E0681C07D025B100F04CFA2A
:100DD000801BA84201D9032070BDE068C007F2D192
:100DE000E068800601D52020E060E068C00605D4F8
:100DF000E069C00702D1E068400703D5FFF7AEFF06
:100E0000012070BD002070BD0020024010B590F898
:100E100021100022022905D00421816380F82020BE
:100E2000012010BD01680B6823F00E030B60016800
:100E30000B6823F001030B6090F84030C46B012174
:100E400001FA03F3636080F8211080F82020104637
:100E500010BD000010B590F821100024022903D025
:100E60000421816301243DE001680A6822F00E023A
:100E70000A6001680A6822F001020A601A4A0168E1
:100E8000914201D1012121E0174A1432914201D14E
:100E900010211BE0144A2832914201D1891515E036
:100EA000114A3C32914201D189140FE00E4A50326E
:100EB000914202D14FF4803108E00B4A64329142F2
:100EC00002D14FF4801101E04FF08071064A083AD8
:100ED0005160012180F82110002180F82010416B21
:100EE00001B18847204610BD0800024070B5044695
:100EF00000F0BAF90546601C02D0044800780444AA
:100F000000F0B2F9401BA042FAD370BD10000020DF
:100F10002DE9F047054626480F460126017E0129A6
:100F20000FD00121814601762868DFF888804CF2D5
:100F30005034022808D0A2462046FFF73DFFA8B152
:100F400031E00220BDE8F0872046FFF735FF08BBFF
:100F50000120FFF7D1FE2046FFF72EFFD8F8101032
:100F6000064621F00401C8F810101CE04FF0FF30D5
:100F70003860AC6811E02046FFF7D0FE5046FFF71E
:100F80001BFFD8F81010060021F00201C8F810105D
:100F900001D03C6007E004F58064D5E9020100EB74
:100FA0008120A042E7D8002189F818103046C9E70F
:100FB00090010020002002400348016941F08001B7
:100FC0000161002070470000002002402DE9F05F21
:100FD00007461C4888460024017E15461E46012906
:100FE00009D00121814601764CF2503A5046FFF774
:100FF000E3FE18B122E00220BDE8F09F012F02D0ED
:10100000022F00D00427D346DFF83CA02201284657
:101010003146FFF7DDF881B208EB4400FFF790FEA0
:101020005846FFF7C9FEDAF8102022F00102CAF88C
:10103000102018B9641CE4B2BC42E7D3002289F83E
:101040001820D9E790010020002002400649002026
:101050000A69120607D5054A4A60054A4A600969C5
:10106000090600D501207047002002402301674592
:10107000AB89EFCD2DE9F84FDFF8B8910024A9F145
:10108000040B23460F2709F1040AABF1040EC9E053
:101090000125A5402A40AA427DD1674ED1F804C05F
:1010A000ACEB0608B44532D014DCBCF1030F3AD0E7
:1010B00009DCBCF1000F2AD0BCF1010F1CD0BCF13F
:1010C000020F31D11DE0BCF1110F17D0BCF1120F8E
:1010D0002AD119E0B8F5881F19D006DCB8F5803F91
:1010E00015D0B8F5801F1FD111E0B8F5001F0ED044
:1010F000B8F5041F18D10AE0CB6815E0CB681B1DBA
:1011000012E0CB6808330FE0CB680C330CE08B683F
:101110002BB1012B4FF0080303D0456104E00423F9
:1011200002E0056100E00023FF2A01D8064601E045
:1011300000F104064FEA840501D9A5F12005D6F88F
:10114000008007FA05FC28EA0C0803FA05F548EACE
:101150000508C6F800804D68ED0062D5374DAE69D0
:1011600046F00106AE61AD6924F0030605F0010505
:101170000095334D06EB050CDCF80850A607360F3A
:1011800007FA06F825EA0805DFF8B880404503D1DC
:101190004FF0000817E044E0DFF8AC80404502D192
:1011A0004FF001080FE0DFF8A480404502D14FF076
:1011B000020808E0DFF89880404502D14FF00308AC
:1011C00001E04FF0040808FA06F848EA0508CCF8F0
:1011D00008804D68D9F80060ED024D4601D51643F0
:1011E00000E096432E604D68DAF80060AD02554687
:1011F00001D5164300E096432E604D68DBF8006091
:10120000AD035D4601D5164300E096432E604D6860
:10121000DEF80060ED03754601D5164300E0964305
:101220002E60641C0D682A46E5407FF431AFBDE8AE
:10123000F88F000008040140000011100010024067
:101240000000014000080140000C01400010014076
:10125000001401408068084000D0012070470AB1A6
:10126000016170470904FBE701488068704700008E
:1012700010000020024881680278114481607047A4
:1012800010000020074810B5016841F0100101600E
:10129000032000F075F80F2000F006F800F024F8A5
:1012A000002010BD0020024070B50D4D04464FF4E3
:1012B0007A712878B1FBF0F00A490968B1FBF0F0C7
:1012C00000F0E0FC48B9102C07D200222146501E45
:1012D00000F036F800206C6070BD012070BD000089
:1012E000100000201C0000200C4808B5816941F066
:1012F00001018161816901F001010091C16941F041
:101300008051C161C06900F080500090044841687C
:1013100021F0E06141F00071416008BD0010024021
:1013200000000140002809DB00F01F02012191406C
:101330004009800000F1E020C0F800117047000073
:10134000F0B40E4B1B680C46C3F30223C3F1070530
:10135000042D00D90425191D072901D2002300E01E
:10136000DB1E012606FA05F1491E214099409E40E8
:10137000761E16403143F0BC02F032BB0CED00E0AB
:10138000064900F0070208684FF6FF03184040EADC
:101390000220034A10430860704700000CED00E093
:1013A0000000FA052DE9F0470F46050061D0434ED5
:1013B000306800F00700B84209D2306820F007001A
:1013C00038433060306800F00700B84251D12868D7
:1013D0003B4C810712D5400703D5606840F4E060BC
:1013E00060602878000703D5606840F46050606052
:1013F0006068A96820F0F000084360602878C007A2
:1014000028D06868012810D02168022810D08907E8
:1014100000292EDA616821F0030101436160FFF7C2
:1014200023FF804641F288390DE021688903EFE708
:101430008901EDE7FFF718FFA0EB0801494502D944
:101440000320BDE8F0876068696800F00C00B0EB2D
:10145000810FEFD1306800F00700B8420BD9306837
:1014600020F0070038433060306800F00700B842D1
:1014700001D00120E5E72878400705D56068E968D4
:1014800020F4E060084360602878000706D56068B3
:10149000296920F4605040EAC100606000F038F82B
:1014A0006168084AC1F30311515CC84006490860ED
:1014B00006480068FFF7F8FE0020C2E7002002405F
:1014C000001002403C4E00081C00002014000020C8
:1014D0000448054900684968044AC1F30221515C87
:1014E000C84070471C000020001002404C4E00080D
:1014F0000448054900684968044AC1F3C221515CA7
:10150000C84070471C000020001002404C4E0008EC
:101510000E4A51680E4801F00C03042B11D0082B21
:101520000FD10C48C1F38343C903C05C0AD551688D
:10153000084AC1F34041921E515C054A5043B0FB3A
:10154000F1F0704704494843704700000010024022
:1015500000127A002C4E000800093D002DE9F84FDA
:10156000040070D02078C04DC00749D06868C0F32F
:101570008100012807D06868C0F38100022809D1E2
:101580006868C00306D52868800339D560680028DC
:10159000E7D035E06068B0F5803F0BD010B1B0F512
:1015A000A02F11D0286820F480302860286820F40B
:1015B000802002E0286840F480302860606890B1A4
:1015C000FFF752FE06460AE0286840F480202860B3
:1015D000F0E700BFFFF748FE801B642873D8286837
:1015E0008003F7D50CE0FFF73FFE064605E000BF9D
:1015F000FFF73AFE801B6428F0D828688003F7D4F0
:1016000020789A4E80074FF001094FF0000839D535
:10161000686810F00C0F07D06868C0F381000228DA
:1016200009D16868C00306D42868800714D52069EA
:10163000012808D110E02069B0B1C6F80090FFF78A
:1016400013FE074605E00AE1FFF70EFEC01B022865
:10165000C4D828688007F7D52868616920F0F800A9
:1016600040EAC10028600DE0C6F80080FFF7FCFDED
:10167000074604E0FFF7F8FDC01B022823D82868BE
:101680008007F7D4207800072CD57948A169D9B113
:10169000C0F80090FFF7E8FD074604E0FFF7E4FD1F
:1016A000C01B02280FD8686A8007F7D571484FF42D
:1016B000FA510068B0FBF1F0009000BF0098411EA5
:1016C0000091FAD20EE080E0C0F80080FFF7CCFD78
:1016D000074604E0FFF7C8FDC01B022875D8686AFA
:1016E0008007F7D42078400760D5E8690027C0005C
:1016F00008D4E86940F08050E861E869012700F00B
:10170000805000905C480168C90513D40168834685
:1017100041F480710160FFF7A7FD824606E000BF3B
:10172000FFF7A2FDA0EB0A0064284ED8DBF800000A
:10173000C005F5D5E06801280AD008B1052813D006
:10174000286A20F001002862286A20F0040002E0E4
:10175000286A40F001002862E06841F2883B98B1B5
:10176000FFF782FD82460BE0286A40F00400286201
:10177000EEE700BFFFF778FDA0EB0A0159455AD804
:10178000286A8007F6D50CE0FFF76EFD824605E07B
:10179000FFF76AFDA0EB0A0159454CD8286A80077B
:1017A000F6D41FB1E86920F08050E861E06988B3A1
:1017B0006968C1F38101022944D00228C6F860801B
:1017C00004D0FFF751FD044638E034E0FFF74CFD4C
:1017D000074604E0FFF748FDC01B02282BD8286805
:1017E0008001F7D4206AB0F5803F05D16868A16810
:1017F00020F4003008436860D4E9080108436968B0
:1018000021F4741108436860C6F86090FFF72CFD5E
:10181000044606E025E000BFFFF726FD001B022876
:1018200009D828688001F7D51BE000BFFFF71CFD31
:10183000001B022802D90320BDE8F88F2868800128
:10184000F4D40EE00128F7D06868226A00F48031F1
:10185000914204D1616A00F47010884201D00120E5
:10186000EAE70020E8E700000010024000004242E2
:10187000800442421C0000200070004070470000BD
:1018800038B50446006842688168C9434B0606D5EE
:10189000CB0704D1D3435B0601D4216C05E08B0751
:1018A00008D4D3431B0605D4616C01B02046BDE8C3
:1018B000304008478B0601D54B0646D4D3439B06E0
:1018C00043D44B060AD494F85130032B3ED0636DB9
:1018D00043F004036365C36883680093890609D4F1
:1018E000616D41F00101616581680091016821F03D
:1018F00040010160606D002827D02068416821F018
:10190000E0014160012084F85100900722D0206856
:10191000416821F003014160104DE06C40B1456326
:10192000E06CFFF797FA18B1606D40F04000606519
:10193000A06C002809D04563A06CFFF78BFA002843
:1019400003D0606D40F04000606538BDC1688068BC
:10195000009038BD2046FFF791FF38BD05320008E2
:1019600070B5040009D0606A002540B12561656149
:10197000A56294F8510040B10CE0012070BD606890
:10198000B0F5827FF4D0E561F2E784F8505020464C
:1019900000F040F8022084F851002068016821F02E
:1019A00040010160A088218900F4827001F40441A3
:1019B0000843A18901F400610843217C01F0020180
:1019C0000843217D01F001010843218B01F40071DE
:1019D0000843217F01F03801084394F8201001F0FA
:1019E00080010843218D01F40051084321680860FB
:1019F000A069042101EA1040216848602068C1699B
:101A000021F40061C1616565012084F85100002066
:101A100070BD000030B585B000240094019402949C
:101A200003940068184988422BD11848816941F411
:101A300080518161816901F480510491816941F093
:101A4000040181618069124D00F004000490A0201F
:101A50000090022001900320039069462846FFF77A
:101A600009FB4020CDE90004694628460294FFF7AF
:101A700001FB002202212320FFF762FC2320FFF755
:101A800051FC05B030BD00000030014000100240A4
:101A9000000801402DE9FF4F81B01D4693460446E2
:101AA0004FF001090E9EFFF7DFFB074694F8510047
:101AB0006168012806D0B1F5827F3CD1A168C9BB1D
:101AC000042838D10298002871D0BBF1000FFBD058
:101AD000002DF9D094F8500001282CD04FF0010AC5
:101AE00084F850A094F85100042802D0052084F80E
:101AF00051004FF00008C4F85480C4F838B0E587AE
:101B0000A58702992163E586A586C4F84080C4F8BC
:101B1000448020680168490603D4016841F040010F
:101B20000160E068B0F5006F606808D0F0B3012D87
:101B300049D081E0FFE7022005B0BDE8F08F08B191
:101B4000012D39D1206B21680088C860206B801C72
:101B50002063E08E401EE0862EE0206881688907C1
:101B60000FD5E18E69B1B9F1010F0AD1216B098856
:101B7000C160206B801C2063E08E401EE0864FF029
:101B8000000920688168C9070CD0E18F51B1C06895
:101B9000A16B0880A06B801CA063E08F401EE087D3
:101BA0004FF00109FFF760FBC01B01E00BE067E0AD
:101BB000B04201D3701C50D1E08E0028CDD1E08F0F
:101BC0000028CAD13EE0206B216800780873206BA2
:101BD000401C2063E08E401EE0862DE02068816876
:101BE00089070FD5E18E69B1B9F1010F0AD1216BD7
:101BF00009780173206B401C2063E08E401EE08654
:101C00004FF0000920688168C9070CD0E18F51B1FD
:101C1000C068A16B0870A06B401CA063E08F401EE1
:101C2000E0874FF00109FFF71FFBC01BB04202D352
:101C3000701C01D011E086B1E08E0028CED1E08F7B
:101C40000028CBD13A463146204601F0E3FA50B1A4
:101C50002020606584F8508012E084F851A084F858
:101C60005080032068E7A06818B92068C1688068C0
:101C7000009084F851A084F85080606D0028F1D065
:101C8000012059E710B5401EB0F1807F01D301203B
:101C900010BD4FF0E02460610F21601701F0A0FE3D
:101CA0000020A06107202061002010BD70B590F8D1
:101CB0003C20012A26D0012480F83C40022280F8F2
:101CC0003D2003685A689D6822F070060A68324316
:101CD0005A600D4B02689A4208D0B2F1804F05D08D
:101CE0000A4B9A4202D00A4B9A4204D1496825F025
:101CF00080031943916080F83D40002180F83C103A
:101D0000084670BD022070BD002C01400004004058
:101D10000008004010B5040003D094F83D0010B155
:101D200007E0012010BD002084F83C00204600F0B0
:101D30001FF8022084F83D00211D206801F03EFBC1
:101D4000012084F8460084F83E0084F83F0084F8BF
:101D5000400084F8410084F8420084F8430084F88D
:101D6000440084F8450084F83D00002010BD0000C8
:101D700008B50068B0F1804F08D10548C16941F04D
:101D80000101C161C06900F00100009008BD0000C0
:101D90000010024070B5044690F83C000025012870
:101DA00017D0012684F83C60022084F83D002068AA
:101DB000826822F0770222F47F428260086850280D
:101DC00038D00DDC20284FD005DC90B3102811D17D
:101DD0004AE0022070BD302846D040280AD13BE0BE
:101DE00060282FD070280DD0B0F5805F03D0B0F5FB
:101DF000005F12D0012584F83D60002084F83C008B
:101E0000284670BDCB68D1E90121206801F01FFB95
:101E10002068816841F0770109E0CB68D1E90121B0
:101E2000206801F014FB2068816841F480418160E2
:101E3000E1E719E0CA684968206801F0BDFB50215C
:101E4000206806E0CA684968206801F0C6FB602186
:101E5000206801F006FBCEE7CA684968206801F0F7
:101E6000ABFB40212068F4E7226801461046F0E70A
:101E700000B585B0002100910191029103910068A5
:101E8000B0F1804F1AD10E48816941F0080181619B
:101E90008069694600F00800049008200090022044
:101EA000019003900748FFF7E5F80748416821F4DF
:101EB000407141F0E06141F48071416005B000BDC6
:101EC00000100240000C01400000014070B50446C3
:101ED00090F83C0000260D4601280FD0012084F820
:101EE0003C006AB1042A1DD0082A2FD00C2A3FD00A
:101EF0000126002084F83C00304670BD022070BDF1
:101F0000206801F0B7FA2068816941F00801816119
:101F10002068816921F004018161206881692A6952
:101F2000114311E0206801F0CDFA2068816941F485
:101F3000006181612068816921F48061816120688C
:101F400081692A6941EA02218161D2E7206801F0B2
:101F5000E5FA2068C16941F00801C1612068C169E2
:101F600021F00401C1612068C1692A69114311E0AF
:101F7000206801F0FFFA2068C16941F40061C16185
:101F80002068C16921F48061C1612068C1692A6942
:101F900041EA0221C161ACE710B5040003D094F816
:101FA0003D0010B107E0012010BD002084F83C0086
:101FB000204600F01EF8022084F83D00211D206814
:101FC00001F0FCF9012084F8460084F83E0084F812
:101FD0003F0084F8400084F8410084F8420084F80F
:101FE000430084F8440084F8450084F83D00002054
:101FF00010BD704710B50446022249B104290ED025
:10200000082913D094F84100012816D0012010BDF2
:1020100094F83E000128F9D184F83E200FE094F8AE
:102020003F000128F2D184F83F2008E094F84000F6
:102030000128EBD184F8402001E084F841200122FE
:10204000206801F0F7F90F492068884203D1426CFB
:1020500042F4004242642068884208D0B0F1804FC8
:1020600005D00949884202D00849884204D18168D4
:1020700001F00701062903D0016841F00101016068
:10208000002010BD002C014000040040000800406A
:1020900070477047F8B5016804460868CA684B691C
:1020A00010F00F0F4FF0000559D003F0010602F4B5
:1020B0009077374365D0C10705D0D10503D5616C52
:1020C00041F001016164410705D5D90703D0616C76
:1020D00041F002016164810705D5D90703D0616C25
:1020E00041F004016164010707D502F0200131438A
:1020F00003D0616C41F008016164616C00293AD041
:10210000800604D5900602D5204601F0A7FA206883
:102110004069616CC0F38010090700D460B32046A9
:1021200001F075FA20684069400621D52068143016
:1021300050E8001F21F0400140E80012002AF5D1CC
:10214000E06BA8B16D494163E06BFEF783FE0028A8
:1021500011D0E06B416B01B0BDE8F0400847830649
:102160000FD593060DD52046BDE8F84001F076BAAC
:102170002046FFF78EFFF8BD2046FFF78AFF656413
:10218000F8BD266B2023012E7CD1C6067AD5D60653
:1021900078D508684868009048694FF00206400604
:1021A00040D5E16B086840680004000CE8D0A28DBF
:1021B0008242E5D9E085886920282DD020680C303E
:1021C00050E8001F21F4807140E80012002AF5D188
:1021D0002068143050E8001F21F0010140E800128F
:1021E000002AF5D12068143050E8001F21F040018A
:1021F00040E80012002AF5D184F8423025632068B7
:102200000C3050E8001F21F0100140E80012002AB5
:10221000F5D1E06BFEF7FAFD6663A08DE18D401A03
:1022200081B22AE0A08DE18D401A81B2E08D0028B4
:10223000A6D00029A4D022680C3252E8000F20F466
:10224000907042E80007002FF5D12068143050E864
:10225000002F22F0010240E80027002FF5D184F87A
:102260004230256320680C3050E8002F22F0100225
:1022700040E80023002BF5D166632046FFF708FFF6
:10228000F8BDFFE705062BD5150629D594F84100C2
:102290002128F5D1A068B0F5805F01D12069B0B1E7
:1022A000206A411C2162216800784860E08C401E51
:1022B0000004000CE084E3D12068C16821F08001B3
:1022C000C1602068C16841F04001C160D8E7206A60
:1022D0000088C0F308004860206A801C2062E5E79F
:1022E0004006CDD55006CBD5CA68204622F0400224
:1022F000CA6084F8413000F01FF9C1E7FF350008DB
:1023000070B5040004D094F84100002510B106E037
:10231000012070BD84F84050204600F023F82420AE
:1023200084F841002068C16821F40051C160204652
:1023300001F0F6F92068016921F4904101612068FB
:10234000416921F02A0141612068C16841F40051CE
:10235000C1606564202084F8410084F84200656310
:10236000002070BD30B585B0002400940194029423
:1023700003942E4D03682E4802210322AB4227D13D
:10238000C36943F40033C361C36903F400330493A6
:10239000836943F0040383618069264D00F00400E3
:1023A00004900420CDE90001039269462846FEF717
:1023B00061FE0820CDE90004694628460294FEF734
:1023C00059FE002201212620FEF7BAFF262029E02F
:1023D000194DAB4228D1C36943F48023C361C3695B
:1023E00003F480230493836943F0080383618069C5
:1023F000039200F0080004902815CDE900010F4D6C
:1024000069462846FEF736FEE814CDE90004694621
:1024100028460294FEF72EFE002203212720FEF715
:102420008FFF2720FEF77EFF05B030BD004400403F
:10243000001002400008014000480040000C01402C
:1024400090F84230202B01D00220704721B11AB100
:102450000023036301F0C0B9012070470B49884293
:1024600013D10B48018809040FD40188FF29018882
:1024700008D8491C0180074900880122014403480B
:10248000FFF7DEBF41F400410180704744010020A6
:1024900020000020300600202DE9F843044690F883
:1024A0004100984616460D46202802D00220BDE87D
:1024B000F88385B17EB100206064212084F841005A
:1024C000FEF7D2FEA6848146E684A0682027B0F5F8
:1024D000805F02D003E00120E9E7206910B12E46B9
:1024E00000250EE000260CE08021204601F08FF947
:1024F000A8B9C6B116F8010B21684860E08C401EEF
:10250000E084E08C4B464FF00002CDF800800028BC
:10251000EAD14FF04001204601F079F940B184F84A
:1025200041700320C3E735F8020BC0F30800E3E76E
:1025300084F841700020BAE77047FEE770B50122C9
:102540000E4D940321462846FEF789FE01225603CC
:1025500031462846FEF783FE00F048F80022214667
:102560002846FEF77CFE00F041F80022314628465E
:10257000FEF775FEBDE8704000F038B8001001406D
:1025800070B50B4D4FF48044002221462846FEF7DB
:1025900066FE012251032846FEF761FE00F026F890
:1025A00021462846BDE870400122FEF758BE0000D3
:1025B0000010014070B50C4C012291032046FEF73B
:1025C0004EFE00F013F80122550329462046FEF77F
:1025D00046FE00F00BF8002229462046FEF73FFE9B
:1025E000BDE8704000F002B8001001400320401E1A
:1025F000C0B2FCD2704770B50C46054600F0AAF890
:1026000020EA04012846BDE8704000F0CBB8000085
:102610002DE9FF5F0027FE25DDF838A016468B4622
:102620008146B8460C2805D0B9F10E0F05D1122706
:10263000102001E077273020804647F080010220FB
:1026400000F0B0F880210420FFF7D5FF0021012021
:1026500000F0A8F880210A2000F098F8002405E096
:102660001BF80410092000F09DF8641CB442F7D355
:102670004946012000F096F8B9F10C0F03D18021F2
:102680000D2000F083F8294E042000F063F8044682
:10269000761E04D0E00702D114EA080FF4D080219E
:1026A0000D20FFF7A8FF36B1062000F053F810F018
:1026B0001B0F0CD0FE2580210C2000F067F80021B4
:1026C000012000F06FF804B02846BDE8F09F002517
:1026D0003C40E00700D0FF25B9F10C0FEBD10A20F8
:1026E00000F038F804460C2000F034F810F0070031
:1026F0004FEAC40104D008390844AAF8000001E0F8
:10270000AAF8001024B1122C04D91224002603E0E8
:102710000124FBE7002605E0092000F01BF80399DF
:102720008855761CA642F7D3C5E70000E093040065
:1027300010B5012210210548FEF791FD0122BDE8E8
:10274000104011460248FEF78ABD00000008014013
:10275000000C014070B57E2101EA40000A4D40F0B6
:102760008004002210212846FEF779FD204600F063
:1027700039FD002000F036FD0446012210212846D4
:10278000FEF76DFD204670BD0008014070B50C4697
:102790000546FFF7DFFF40EA04012846BDE8704028
:1027A000AFF3008070B50E467E2101EA4004094D6A
:1027B000002210212846FEF752FD204600F012FDAF
:1027C000304600F00FFD2846BDE870400122102180
:1027D000FEF745BD000801402DE9F04786B0002511
:1027E00035480095019502950395816941F01001E6
:1027F0008161816901F010010491816941F020013A
:102800008161816901F020010491816941F0040135
:102810008161816901F004010491816941F008013D
:1028200081618069DFF8948000F008004FF4C044B3
:102830000490012221464046FEF711FDDFF880900A
:10284000012210214846FEF70AFDDFF878A046F283
:102850006107012239465046FEF701FD009401242C
:102860000326CDE90246694640460194FEF702FC84
:10287000CDE90045694648460294FEF7FBFB10206F
:10288000CDE90004CDE9024669464846FEF7F2FB71
:10289000CDE90074CDE9024669465046FEF7EAFBF1
:1028A0004FF46070CDE90005694602945046FEF78A
:1028B000E1FB06B0BDE8F0870010024000100140C7
:1028C00000080140000C0140104810B50E4901609D
:1028D0004FF48271416000218160C1604FF4007249
:1028E0000161C0E905121822C0E907214162816235
:1028F0000A21C162FFF734F8002803D0BDE8104078
:10290000FEF7F7B910BD0000003001405C00002068
:1029100010B58EB000240794089409940A940B947F
:102920001C2168460C94FDF75CFD1E484FF0804169
:1029300001604721C0E9011444F61F61C0E9031496
:1029400080218161FFF7E6F908B1FEF7D2F94FF473
:102950008050079007A91348FFF71CFA08B1FEF74B
:10296000C8F91048FFF718FB08B1FEF7C2F90B943D
:102970000BA90C480C94FFF799F908B1FEF7B9F9C7
:102980006020CDE9000402940422694605480494BD
:10299000FFF79CFA08B1FEF7ACF90248FFF768FAB6
:1029A0000EB010BDB40000200C4810B50A490160FB
:1029B0004FF4E1314160002181600C22C160C0E927
:1029C00004128161C161FFF79BFC002803D0BDE8C0
:1029D0001040FEF78EB910BD00440040FC000020FE
:1029E00010B50F4C0D480C2120604FF46140606021
:1029F0000020A060E060C4E90401A061E06120461D
:102A0000FFF77EFC08B1FEF774F920684068BDE866
:102A10001040012203490248FFF712BD0048004060
:102A2000440100203006002010B50B4C0122510358
:102A30002046FEF714FC012291032046FEF70FFC0E
:102A4000012220212046FEF70AFC20460122BDE893
:102A500010404021FEF703BC000C01402DE9F04777
:102A6000614D00244FF40057224639462846FEF7B0
:102A7000F6FB0122960331462846FEF7F0FB0122C1
:102A800020212846FEF7EBFB012240212846FEF7D5
:102A9000E6FB80212846FEF7DDFBDFF850A14FF46E
:102AA00080784FF4007978B141462846FEF7D2FB92
:102AB00060B149462846FEF7CDFB48B1012150469A
:102AC000FEF7C8FB30B106E0012404E0022402E076
:102AD000032400E00424012239462846FEF7BFFB08
:102AE000002231462846FEF7BAFB80212846FEF731
:102AF000B1FB78B141462846FEF7ACFB60B14946D0
:102B00002846FEF7A7FB48B101215046FEF7A2FB7D
:102B100030B106E0052404E0062402E0072400E0CA
:102B20000824012231462846FEF799FB0022202185
:102B30002846FEF794FB80212846FEF78BFB78B1F0
:102B400041462846FEF786FB60B149462846FEF717
:102B500081FB48B101215046FEF77CFB30B106E015
:102B6000092404E00A2402E00B2400E00C240122E2
:102B700020212846FEF773FB002240212846FEF75D
:102B80006EFB80212846FEF765FB78B1414628465A
:102B9000FEF760FB60B149462846FEF75BFB48B193
:102BA00001215046FEF756FB30B106E00D2404E04B
:102BB0000E2402E00F2400E01024012239462846AA
:102BC000FEF74DFB012231462846FEF748FB012265
:102BD00020212846FEF743FB012240212846FEF72C
:102BE0003EFB2046BDE8F087000C01400008014094
:102BF000FEE7FEE730B40021084B0A465FF0000014
:102C000003EBC004401CC0B262548028F8D3491CB6
:102C1000C9B20829F2D330BC00F08EB8B001002050
:102C200030B5CC0801F0070301259D40EBB2064DFD
:102C300005EBC005C808285C0AB1184302E063EA46
:102C40000000C043285530BDB001002010B5002160
:102C5000AE2000F06CF90021084600F068F9002170
:102C6000102000F064F90021402000F060F90021FC
:102C7000812000F05CF90021CF2000F058F90021FC
:102C8000A12000F054F90021C82000F050F90021E3
:102C9000A62000F04CF90021A82000F048F90021FE
:102CA0003F2000F044F90021D32000F040F900213A
:102CB000084600F03CF90021D52000F038F9002149
:102CC000802000F034F90021D92000F030F90021F3
:102CD000F12000F02CF90021DA2000F028F9002181
:102CE000122000F024F90021DB2000F020F900215F
:102CF000302000F01CF90021202000F018F90021FC
:102D0000022000F014F900218D2000F010F90021BC
:102D1000142000F00CF9FFF76DFF0021BDE8104012
:102D2000AF2000F004B90246012000E05043491EE4
:102D3000C9B2FBD27047000070B5184E002400BF26
:102D400004F1B000C0B2002100F0F1F80021084603
:102D500000F0EDF80021102000F0E9F8FFF7EEFB9D
:102D6000782000F0CFFAFFF725FC402000F0CAFAE7
:102D7000FFF720FC5FF0000506EBC500005D00F0EA
:102D8000C1FAFFF717FC6D1CEDB2802DF4D3FFF7ED
:102D9000F7FB641CE4B2082CD2D370BDB001002054
:102DA0002DE9FC4F1C460E4682468B460190082BAF
:102DB0000DD0600700D0012000EBD400610848432B
:102DC000C0B28146203AD0B2009000204BE00620ED
:102DD000F7E7082C13D00C2C18D0102C1BD0182C73
:102DE00044D10098234900EBC00000BF01EB8001F3
:102DF000002711F80850E80712D00B9A13E000984A
:102E00001D4900EB400001EB4001F1E700981B4930
:102E100000EB4000EAE71A49009801EB0011E7E7F0
:102E20000B9828B3002231465046FFF7F9FE761C76
:102E30007F1C6D08FFB2F6B2082FDCD30AF1010047
:102E400000F0FF0A082C0AD00199AAEB0100B0EBB0
:102E5000540F04D10BF108008A4600F0FF0B08F173
:102E600001005E46C0B280464845B2D3BDE8FC8F43
:102E70000122D8E7E05A0008544E00087C500008B0
:102E8000F05400082DE9F84F0025DDE90A691F46D6
:102E900092468B468046082E00D1022500241CE075
:102EA000381B401EC1B20A20FFF73DFFBAFBF0F00D
:102EB0000A21B0FBF1F201FB1200CDF8009080B1C5
:102EC0003030C2B205EB560101FB0480C0B233467C
:102ED0005946FFF765FF641CE4B2BC42E0D3BDE88D
:102EE000F88F05EB560101FB0480C0B23346302257
:102EF000EEE72DE9F8411E46154688460446079F31
:102F00000BE03346414620460097FFF749FF082E65
:102F10000AD004EB5600C4B26D1C2A78A2F120003E
:102F20005E28EED9BDE8F881A41DE4B2F4E770B5DF
:102F30000C460546FFF702FB782000F0E3F9FFF7A7
:102F400039FB0CB1402000E0002000F0DBF9FFF776
:102F500031FB284600F0D6F9FFF72CFBBDE87040A6
:102F6000FFF70EBB03211420FFF745BB10B514205B
:102F7000FFF7F0FB800705D10321BDE810401420C6
:102F8000FFF704BC10BD70B50646082188B00024C8
:102F90000846FFF730FB00210D20FFF703FC8021DE
:102FA0000E20FFF728FB93208DF8040020208DF8D9
:102FB000050006A801AB0090022219460C20FFF77D
:102FC00027FB05000DD1002101A8425C7254425C30
:102FD000491C5440C9B20429F7D3405CA04200D038
:102FE000FE2580210E20FFF7D1FB08B0284670BDDA
:102FF00010B5FFF79DFB00F02FF8FFF7B3FFBDE81A
:103000001040FFF7B3BF30B50C460546082187B026
:103010000846FFF7F0FA07210D20FFF7C3FB032155
:103020001420FFF7B3FB06A801AB00908DF8045005
:10303000012219460C20FFF7EBFA002809D1BDF850
:103040001810102905D19DF8041021709DF8051065
:10305000617007B030BD000010B5204C0122114650
:103060002046FEF7FCF80220FDF740FF0022012178
:103070002046FEF7F4F80220FDF738FF0122114642
:103080002046FEF7ECF80220FDF730FF0F2101206B
:10309000FFF788FB0220FDF729FF3D211120FFF7F4
:1030A00081FB1E212D20FFF77DFB00212C20FFF747
:1030B00079FB8D212A20FFF775FB3E212B20FFF79E
:1030C00071FB40211520FFF76DFBFFF74BFF02203E
:1030D000FDF70CFFBDE81040FFF748BF000C0140B2
:1030E00070470000F0B5104B10481A7802700A2A99
:1030F00002D900210170F0BD00200D4D11E000212A
:1031000000EB800400EB800664002E4404EB4107D2
:103110001F44BF787754491CC9B20529F6D3401C17
:10312000C0B29042EBD3F0BD00F0010800000020D7
:10313000280000200E4A002102EB410393F866307C
:103140004354491CC9B20429F6D30178092908D887
:103150004178092905D88178092902D8C178092937
:1031600004D90021017041708170C1707047000066
:1031700000F001082DE9F041002780463C46144D3F
:10318000144E09E004EB8400284405224146FDF773
:10319000B7F838B1641CE4B230788442F2D33846D0
:1031A000BDE8F0813078411E0AE000BF04EB8402E4
:1031B0002A44641CD2F805301360537A1371E4B2C8
:1031C0008C42F3DB401E3070012700F067FBE6E71E
:1031D00028000020000000200148FEF751BB00003D
:1031E0005C00002001B582B00A200090012301AAF2
:1031F00002A90348FEF74EFC9DF804000EBD000036
:103200005C00002010B5406A0021C187C186FEF72E
:1032100035FB10BDF8B515460E460B460092044628
:103220000122022100F010F840B93346002280212B
:103230002046009500F008F8002804D0606D40F0AA
:10324000200060650320F8BD2DE9F8431E46914635
:1032500088460446089DFEF707F8401B351AFEF71E
:1032600003F8074625480068C0F3CB30684338E0D0
:10327000701C37D0FDF7F8FFC01BA84203D215B170
:10328000009860B32CE02068416821F0E0014160C3
:103290006068B0F5827F0BD1A068B0F5004F02D016
:1032A000B0F5806F04D12068016821F04001016011
:1032B000A06AB0F5005F09D12068016821F40051CF
:1032C00001602068016841F400510160012084F828
:1032D0005100002084F850000320BDE8F883002549
:1032E000401E00902068816838EA010004D0002167
:1032F0004945BDD10020F0E70121F9E71C0000207D
:10330000704700002DE9F041124F002405464FF4AC
:1033100080487E14280601D5012200E000224146A3
:103320003846FDF79CFFFFF761F901223146384628
:10333000FDF795FFFFF75AF9002231463846FDF7B1
:103340008EFF6806641C050EE4B2082CE2D3BDE8CB
:10335000F081000000100140FDF78CBF30B58FB048
:1033600028216846FDF73DF814210AA8FDF739F831
:1033700001210804CDE900100024029402250491E3
:10338000CDE907504FF4E01009906846FEF7E6F8E3
:1033900008B172B6FEE70F20CDE90A054FF4806050
:1033A000CDE90C4002210AA80E94FDF7FBFF00288E
:1033B00001D072B6FEE70FB030BD7047F0B50268BD
:1033C000194B1A4C1A4D4FF08047984205D0B8421D
:1033D00003D0A04201D0A84203D122F070064A686F
:1033E0003243984205D0B84203D0A04201D0A8424F
:1033F00003D122F44074CA6822434C6922F080024F
:10340000224302608A68C2620A688262984201D1DD
:1034100009690163012141610169C90703D001699B
:1034200021F001010161F0BD002C014000040040C9
:103430000008004010B501F01F030121046A994003
:103440008C430462016A9A401143016210BD10B5B9
:10345000846842EA032224F47F440A4322438260C0
:1034600010BD826822F070020A4342F007018160B9
:103470007047000030B5036A026A22F0010202625E
:103480004268846924F073050C682C4323F002051C
:103490008B682B430A4DA8420BD123F00805CB685B
:1034A00022F440722B434D6923F0040315438A69CB
:1034B0002A434260846149684163036230BD000071
:1034C000002C014030B5026A036A23F01003036246
:1034D000436884690D6824F4E64444EA05248D6851
:1034E00022F0200242EA05120B4DA8420ED1CD680F
:1034F00022F0800242EA05124D6923F4406343EA58
:1035000085038D6922F0400243EA850343608461AC
:1035100049688163026230BD002C014030B5036A06
:10352000026A22F4807202624268C46923F4007362
:1035300024F073050C682C438D6843EA05230C4D79
:10354000A8420ED1CD6823F4006343EA05234D69F8
:1035500022F4405242EA05128D6923F4806342EA64
:1035600005124260C4614968C163036230BD000056
:10357000002C014030B5046A026A22F480520262D3
:103580004268C3690D6823F4E64343EA05238D6866
:1035900024F4005444EA0534064DA84204D14D6990
:1035A00022F4804242EA85124260C36149680164A4
:1035B000046230BD002C014010B5036A046A24F097
:1035C00001040462846924F0F00444EA021423F044
:1035D0000A020A438461026210BD10B5036A046ADC
:1035E00024F010040462846923F0A00324F47044DE
:1035F00044EA023243EA01118261016210BD10B552
:10360000406A0021C185C184FEF743FD10BD0168F9
:103610000C3151E8002F22F4907241E80023002B76
:10362000F5D10168143151E8002F22F0010241E880
:103630000023002BF5D1016B012909D101680C3160
:1036400051E8002F22F0100241E80023002BF5D1B1
:10365000202180F8421000210163704708B590F8DE
:103660004210222901D0022008BD82684FF4805305
:103670009A4201D1016921B1816A9A421BD04AB1B3
:103680000AE00268816A5268C2F308020A80816A0D
:10369000891C08E0026972B10268526802F07F0278
:1036A0000A70816A491C8162C18D491E0904090C96
:1036B000C18503D01BE002685268F1E70168CA685F
:1036C00022F02002CA600168CA6822F48072CA60CF
:1036D00001684A6922F001024A61202180F8421003
:1036E00000214163026B012A03D0FEF7B7FE0020E0
:1036F00008BD016301680C3151E8002F22F010026F
:1037000041E80023002BF5D101680A68D20602D5F2
:103710000A6849680091818DFEF7BAFCE7E700006E
:1037200070B5044600680169E26821F44051114314
:1037300001612169A0680843616908432168CA687A
:1037400041F20C639A430243CA6020684169A2694E
:1037500021F44071114341611E492068884202D121
:10376000FDF7C6FE01E0FDF7B3FE00EBC00101EB83
:103770000012606864218000B2FBF0F3B3FBF1F348
:103780006FF018067343B2FBF0F5B2FBF0F605EBF1
:103790008305322303EB0515B5FBF1F5B6FBF1F616
:1037A00005F0F00505EB0615B2FBF0F6B2FBF0F004
:1037B000B0FBF1F06FF01802504306EB800003EB12
:1037C0000010B0FBF1F0216800F00F002844886081
:1037D00070BD00000038014081628285C2850021F1
:1037E0004164222180F84210016921B10168CA6850
:1037F00042F48072CA6001684A6942F001024A617B
:103800000068C16841F02001C160002070472DE9C7
:10381000F843984617460D460446089E24E0701C5F
:1038200022D0FDF721FDA0EB0800B0421AD8CEB19E
:103830002068C168490717D5802D15D0402D13D0B9
:103840000168C94309070FD401680025406800904A
:103850002046FFF7DCFE0820606484F84050012019
:10386000BDE8F8830320FBE72068006835EA000024
:1038700004D00020B842D2D00020F1E70120F9E7BF
:103880000148FEF707BC0000FC0000200148FEF7DD
:1038900001BC000044010020FEE700002DE9F047D4
:1038A00086B000240494FDF7D1FB1D4D0120CDE925
:1038B000025004A900946846FDF72AFB58BB194C36
:1038C0000023294622780120FDF780FB18BBDFF892
:1038D00050800025DFF850A008F10208A14616E04C
:1038E00005EB850000EB0A07002405EB8500460088
:1038F00006EB44013A5D414400230120FDF766FBDD
:1039000048B9641CE4B2052CF2D36D1CEDB299F8F1
:1039100000008542E4D3FDF74FFB06B0BDE8F08719
:1039200000F0010800000020280000202DE9F04FE1
:1039300085B0002481460494FDF788FB254D0120C5
:10394000CDE9025004A900946846FDF7E1FAE0BB16
:10395000214C0023294622780120FDF737FBA0BB2C
:10396000DFF870800025DFF874B008F10208A24685
:1039700016E000BF05EB850000EB0B0705EB8500AB
:10398000460006EB44013A5D414400230120FDF767
:103990001DFBD0B9641CE4B2052CF2D36D1CEDB252
:1039A0009AF800004FF000048542E3D3094D6635D4
:1039B00019F8042005EB440100230120FDF706FB64
:1039C00018B9641CE4B2042CF2D3FDF7F5FA05B083
:1039D000BDE8F08F00F00108000000202800002062
:1039E0000907090E002804DB00F1E02080F800142C
:1039F000704700F00F0000F1E02080F8141D7047C0
:103A000090B0FDF73FFCFFF7A9FCFEF7E5FEFEF7DF
:103A10005BFFFEF7E5FFFEF7C7FFFEF779FFFFF755
:103A200015F9012400210823FCA208460094FFF7A1
:103A300060FAFFF781F94FF47A70FDF757FAFB4D02
:103A4000002261032846FDF70AFC0022A103284654
:103A5000FDF705FCDFF8D8A340F2DC5BDAF80010D4
:103A6000C1F838B004215046FEF7C4FAFFF7C0FA97
:103A7000FCF78CFFFFF736FBEE48FFF75BFBFFF729
:103A8000B9F800210823ECA208460094FFF731FAA8
:103A9000FFF752F9A01E099009A8FCF73DFF4FF46B
:103AA000FA65A8B1FFF7A6F800210823E7A20846A7
:103AB0000094FFF71EFA0823E8A21946002000949C
:103AC000FFF717FAFFF738F92846FDF70FFAFEE778
:103AD000FFF790F80021A1460823DCA208460094D5
:103AE000FFF707FA0823DFA2194600200094FFF72A
:103AF00000FAFFF721F94FF4FA60FDF7F7F9FFF745
:103B000079F800210823DAA208460094FFF7F1F9BA
:103B10000823DCA2194600200094FFF7EAF90823E5
:103B2000DEA2102100200094FFF7E3F90823E0A2B1
:103B3000182100200094FFF7DCF90823E0A22021DF
:103B400000200094FFF7D5F90823E2A228210020E5
:103B50000094FFF7CEF90823E4A23021002000945E
:103B6000FFF7C7F9FFF7E8F8FEF75EFFB14C4FF03B
:103B70000008A41FFEF772FF05466078854200F03A
:103B80006887002D00F06687042D1ED00C2D70D0A4
:103B90000D2D6FD0082D6ED00F2D6DD0102D6CD047
:103BA000FFF728F800214E460823D5A20846CDF895
:103BB0000090FFF79EF90820CDE9000602232A466F
:103BC00000212820FFF75EF9E4E1FFF713F8002158
:103BD0004F460823CCA20846CDF80090FFF789F99C
:103BE0000823CDA2194600200097FFF782F9FFF7BE
:103BF000A3F802E00A20FDF779F9FEF72FFF00286D
:103C0000F8D1CDF82C80CDF80880CDF80C800BA928
:103C10002620FFF7F8F918B902A8FFF7B4F918B190
:103C20006420FDF763F9F2E7FEF7E4FF00210823C3
:103C3000BCA208460097FFF75CF900260821CDE9F1
:103C4000001702A80223825D06EB4600C006000EA4
:103C50001021FFF717F9761CF6B2042EEED3FFF70A
:103C60006BF802A8FDF726F840B10823AFA2009731
:103C70000EE03EE092E15BE2FDE3FDE302A8FCF72B
:103C8000FDFF4FF00803009708B1ADA200E0B2A21B
:103C900018210020FFF72DF9FFF74EF84FF4FA60D6
:103CA000FDF724F96420FDF721F9FEF7A3FF0021B9
:103CB0003E4608236EA208460097FFF71AF908232C
:103CC00070A2194600200096FFF713F9082373A28B
:103CD000102100200096FFF70CF9082374A2182188
:103CE00000200096FFF705F9082375A22021009611
:103CF000FEE3FEF77FFF00214F46082382A208461D
:103D0000CDF80090FFF7F5F8082397A21946002098
:103D10000097FFF7EEF8FFF70FF802E00A20FDF733
:103D2000E5F8FEF79BFE0028F8D1CDF82C80CDF801
:103D30000880CDF80C800BA92620FFF764F918B98C
:103D400002A8FFF720F918B16420FDF7CFF8F2E7D9
:103D5000FEF750FF0021082372A208460097FFF7E4
:103D6000C8F800260820CDE9000702A80223825DDA
:103D700006EB4600C006000E1021FFF783F8761C04
:103D8000F6B2042EEED3FEF7D7FF02A8FCF792FF9F
:103D9000002842D002A8FFF7EDF960B1082375A210
:103DA000009718210020FFF7A4F8FEF7C5FF4FF495
:103DB000FA60FDF79BF86420FDF798F8FEF71AFF0C
:103DC00000213E4608232AA208460097FFF791F8F3
:103DD00008232CA2194600200096FFF78AF8082332
:103DE0002EA2102100200096FFF783F8082330A2AE
:103DF000182100200096FFF77CF8082330A220212C
:103E000000200096FFF775F8082332A22821002031
:103E10000096FFF76EF8009659E1B7E0496E6974B5
:103E200069616C697A696E672E2E2E00000C014064
:103E3000B400002006000020436865636B696E676C
:103E40002041533630382E2E2E000000415336309C
:103E5000382048616E647368616B65004661696C07
:103E6000656421005375636365737321000000006E
:103E70005761697420666F72204E464320636172F9
:103E8000640000005761697420666F722066696E75
:103E90006765727072696E7400000000507265731D
:103EA000732023313620666F722050494E00000087
:103EB000507265737320233420746F20526567003D
:103EC00050726573732023313220746F2044656C07
:103ED0000000000050726573732023313320666F39
:103EE00072204650205265670000000050726573D2
:103EF000732023313520746F2044656C20465000B8
:103F00004B65793A20000000506C616365204E4695
:103F10004320436172640000746F205265676973C7
:103F2000746572004E46432049443A00416C726504
:103F30006164792052656769737465726564000015
:103F40005265676973746572656420537563636550
:103F5000737366756C6C790053746F72616765205A
:103F600046756C6C00000000746F2044656C6574CD
:103F70006500000044656C65746564205375636377
:103F800065737366756C6C79000000000823F7A2F6
:103F9000009706E7FEF7D0FE6570F2E3FEF72AFE13
:103FA00000214F460823F5A20846CDF80090FEF701
:103FB000A0FF0823F4A2194600200097FEF799FFFE
:103FC000FEF7BAFE02E00A20FCF790FFFEF746FD7E
:103FD0000028F8D1FEF70EFE00210823E7A20846CC
:103FE0000097FEF786FF0823E7A2194600200097F6
:103FF000FEF77FFF0823E7A2102100200097FEF7BD
:1040000078FF0823E7A2182100200097FEF771FF30
:10401000FEF792FE40F6B830FCF768FFA088FCF788
:104020000BFB060058D0FEF7E5FD00210823D6A2C1
:1040300008460097FEF75DFF0823AFF2E01219462D
:1040400000200097FEF755FF3046FCF72FFB024695
:104050000823102100200097FEF74BFFFEF76CFEAF
:104060004FF4FA60FCF742FFFEF7C4FD0823AFF2FD
:104070000022002108460097FEF73BFF0823AFF21D
:10408000FC12194600200097FEF733FF0823AFF219
:10409000F412102100200097FEF72BFF0823AFF247
:1040A000F012182100200097FEF723FF0823AFF23B
:1040B000F012202100200097FEF71BFF0823AFF22B
:1040C000EC12282100200097FEF713FF0097082329
:1040D000AFF2E812302196E2FEF78CFD00210823B2
:1040E000A9A208460097FEF704FF0823AFF28C222E
:1040F000194600200097FEF7FCFEA288ACA101A89B
:10410000FCF77AF8082301AA102100200097FEF797
:10411000F0FEFEF711FE4FF4FA60FCF7E7FEA08810
:10412000401C80B2A080B0F5967F9DD3A7809BE70E
:10413000FEF760FD00214E4608239FA20846CDF8F9
:104140000090FEF7D6FEFEF7F7FD02E00A20FCF72E
:10415000CDFEFEF783FC0028F8D1FEF74BFD0021D1
:10416000B146082397A208460096FEF7C2FE082330
:1041700099A2102100200096FEF7BBFEFEF7DCFDA1
:1041800000263746CDF82C80FEF768FC00287DD04D
:10419000102807D0042E2BD20022411E022905D858
:1041A00002460EE0042E23D1012721E0431F022BFB
:1041B00001D8CAB205E0A0F10901022903D8801E86
:1041C000C2B2092A14D80BA8012382550820CDE9D0
:1041D000000906EB86008006000E0821FEF752FE5D
:1041E000FEF7AAFD761CF6B202E00A20FCF77EFE7E
:1041F000FEF734FC0028F8D16420FCF777FE002F8E
:10420000C2D07B4A00200BA9165C0B5CB34261D084
:10421000FEF7F0FC00214D46082376A20846CDF8B3
:104220000090FEF766FE082375A21946002000954F
:10423000FEF75FFEFEF780FD4FF4FA60FCF756FED6
:10424000FEF7D8FC0823AFF2D832002108460095CB
:10425000FEF74FFE0823AFF2D43219460020009536
:10426000FEF747FE0823AFF2CC3210210020009564
:10427000FEF73FFE0823AFF2C83218210020009558
:10428000FEF737FE0823AFF2C83200E01EE020211F
:1042900000200095FEF72DFE0823AFF2C83228213A
:1042A00000200095FEF725FE0823AFF2C032302132
:1042B00000200095FEF71DFE082355A2382100209E
:1042C0000095FEF716FEFEF737FD53E46420FCF779
:1042D0000DFE59E7401CC0B2042895D3FEF78AFCB6
:1042E00000214E46082350A20846CDF80090FEF764
:1042F00000FE082338A2102100200096FEF7F9FDE9
:10430000FEF71AFD00263746CDF80C80FEF7A6FB17
:1043100058B3102807D0042E08D20022411E0229CB
:1043200005D802460EE0042E00D1012787E0431F86
:10433000022B01D8CAB205E0A0F10901022903D875
:10434000801EC2B2092A7AD803A80821825506EB3A
:104350008600CDE900198006000E0123FEF792FDCC
:10436000FEF7EAFC761CF6B269E09CE0496E7661E5
:104370006C696420436172640000000046696E67E6
:1043800065727072696E7400456E726F6C6C6D65EB
:104390006E740000506C6163652066696E676572BB
:1043A000000000006F6E2073656E736F7200000076
:1043B00049443A20256400004368616E67652050D7
:1043C000494E0000456E7465722063757272656EA9
:1043D000742050494E3A00005072657373202331A7
:1043E0003620746F20636F6E6669726D0000000086
:1043F0000600002050494E204572726F7200000086
:104400004163636573732044656E696564000000F1
:10441000507265737320233820746F204368616E77
:1044200067652050494E0000456E746572206E65C8
:10443000772050494E3A00000A20FCF757FDFEF75E
:104440000DFB0028F8D16420FCF750FD002F3FF44D
:104450005DAFFEF7CFFB00214E460823FDA20846C4
:10446000CDF80090FEF745FD0823AFF2940210212D
:104470000020009601E0CAE0A0E1FEF73AFDFEF759
:104480005BFC00263746CDF8308000BFFEF7E6FA29
:1044900078B310280BD0042E31D20022411E0229FD
:1044A00009D8024612E06420FCF720FD2EE7042E16
:1044B00025D1012723E0431F022B01D8CAB205E012
:1044C000A0F10901022903D8801EC2B2092A16D818
:1044D0000CA80821825506EB8600CDE9001980065C
:1044E000000E0123FEF7CEFCFEF726FC761C01E051
:1044F00089E023E0F6B202E00A20FCF7F7FCFEF7C1
:10450000ADFA0028F8D16420FCF7F0FC002FBDD0F4
:10451000002003A90CAA0B5C165CB34212D0FEF774
:1045200069FB00214E460823CFA20846CDF8009033
:10453000FEF7DFFC0823D0A200961CE06420FCF705
:10454000D5FCA3E7401CC0B20428E4D30398C4F808
:104550000600CC48FFF7EAF9FEF74CFB00214E4677
:104560000823C9A20846CDF80090FEF7C2FC082334
:10457000AFF21072009608210020FEF7BAFCFEF799
:10458000DBFB4FF4FA60FCF7B1FCFEF733FB4E4661
:104590000823AFF2247200210846CDF80090FEF700
:1045A000A8FC0823AFF22472194600200096FEF7FB
:1045B000A0FC0823AFF21C72102100200096FEF729
:1045C00098FC0823AFF21872182100200096FEF71D
:1045D00090FC0823AFF21872202100200096FEF70D
:1045E00088FC0823AFF21472282100200096FEF701
:1045F00080FC0823AFF20C72302100200096FEF7F9
:1046000078FC0096B8E00020FEF773FCC2E4FEF7E9
:10461000F1FA4F460823AFF29C2200210846CDF85C
:104620000090FEF766FC08239AA219460020009726
:10463000FEF75FFCFEF780FB02E00A20FCF756FC69
:10464000FEF70CFA0028F8D1FEF7D4FA0823AFF2EF
:10465000BC22002108460097FEF74BFC082390A2DD
:10466000194600200097FEF744FCFEF765FB40F674
:10467000B830FCF73BFCADF80480ADF8088002A927
:1046800001A8FCF7E5FAA0B1FEF7B4FA002108236F
:1046900080A208460097FEF72CFC0823AFF64402E0
:1046A000194600200097FEF724FC08237FA20097FC
:1046B0001DE00121BDF80400FBF79FFF060061D05B
:1046C000FEF798FA0021082372A208460097FEF729
:1046D00010FC0823AFF67C02194600200097FEF775
:1046E00008FC3046FBF7E2FF024608230097102142
:1046F0000020FEF7FEFBFEF71FFB4FF4FA60FCF70D
:10470000F5FBFEF777FA0823AFF69C020021084676
:104710000097FEF7EEFB0823AFF69802194600203B
:104720000097FEF7E6FB0823AFF690021021002069
:104730000097FEF7DEFB0823AFF68C02182100205D
:104740000097FEF7D6FB0823AFF68C02202100204D
:104750000097FEF7CEFB0823AFF688022821002041
:104760000097FEF7C6FB0823AFF680023021002039
:104770000097FEF7BEFB00970823AFF26C3238219A
:1047800041E769E1FEF736FA0021082341A2084615
:104790000097FEF7AEFB0823AFF63812194600204B
:1047A0000097FEF7A6FBBDF80420AFF2FC310BA882
:1047B000FBF722FD08230BAA009798E7FEF71AFAE9
:1047C00000214E4608233EA20846CDF80090FEF791
:1047D00090FB0823AFF20042102100200096FEF764
:1047E00088FBFEF7A9FA02E00A20FCF77FFBFEF740
:1047F00035F90028F8D10026CDF83480FEF72EF9DF
:1048000000286FD0102807D0042E6BD20022411E42
:10481000022968D80246C1E0042E65D1012001902A
:10482000184900200DAA0E5C135CB34202D0002090
:10483000019003E0401CC0B20428F4D3FEF7DAF97B
:1048400000214E46082322A20846CDF80090FEF72C
:1048500050FB4AE0436F6E6669726D206E6577208B
:1048600050494E3A0000000050494E204D69736D8A
:1048700061746368000000005472792061676169A7
:104880006E0000000600002050494E204368616E13
:104890006765640044656C6574696F6E00000000B4
:1048A000746F2064656C65746500000046696E670E
:1048B0006572206E6F7420666F756E640000000074
:1048C000456E7465722050494E20636F64653A00EE
:1048D000566572696679696E672050494E2E2E2E94
:1048E000000000008FE04AE041E0FEF725FA4FF4B7
:1048F0007A773846FCF7FAFA019800B3FEF77AF9AE
:1049000000210823FCA208460096FEF7F2FA0823CD
:10491000FDA2194600200096FEF7EBFAFEF70CFA0E
:10492000DAF800107810564688633846FCF7DEFA4D
:104930003168C1F838B03846FCF7D8FA13E0FEF712
:1049400059F90823AFF25452002108460096FEF7A9
:10495000D0FA0823AFF25852194600200096FEF70D
:10496000C8FAFEF7E9F94FF4FA60FCF7BFFA322013
:10497000FCF7BCFAFEF772F8E8B30A20F8E7431F29
:10498000022B03D811F0FF0208D105E0A0F10901C4
:10499000022901D8811EF5E70E2834D10DA88255D1
:1049A000761CF6B2FEF726F90823AFF2EC020021DE
:1049B0000846CDF80090FEF79CFA00270DE008218C
:1049C000CDE900190DA80123C25D0A2000EB0710F4
:1049D000C0B2FEF757FA7F1CFFB2B742EFD30823ED
:1049E000AFF20C6210210020CDF80090FEF781FAA2
:1049F000FEF7A2F903E00AE00A20FCF777FAFEF7D7
:104A00002DF80028F8D13220FCF770FAF6E6FEF710
:104A1000F1F84E460823AFF6A83200210846CDF83B
:104A20000090FEF766FA0823AFF6A8321946002078
:104A30000096FEF75EFA0823AFF6A03210210020A0
:104A40000096FEF756FA0823AFF69C32182100961E
:104A5000D9E50DB984F801804646CDF82880CDF817
:104A600018800AA92620CDF81C80FEF7CCFA98B150
:104A7000C4F80A60ADF81060ADF8146005A904A888
:104A8000FCF7E6F805007DD0092D7CD0022D7BD007
:104A9000A078002879D062E106A8FEF774FA002811
:104AA000E8D104229C4906A8FBF72AFC0028E1D0A3
:104AB000FEF7A0F800214F46082398A20846CDF83B
:104AC0000090FEF716FA00250820CDE9000706A899
:104AD00005EB8501425D0A2000EB8100C0B2022394
:104AE0000821FEF7CFF96D1C042DEDDBFEF724F94C
:104AF0000698C4F80A0006A8FCF7DCF84FF0080393
:104B00000097B8B189A210210020FEF7F2F9FEF754
:104B100013F9DAF800104FF4FA7055468863400034
:104B2000FCF7E4F92968C1F838B04FF47A70FCF763
:104B3000DDF907E0AFF2387210210020FEF7D9F955
:104B4000FEF7FAF84FF4FA60FCF7D0F9FEF752F8E6
:104B50000823AFF6E442002108460097FEF7C9F9A2
:104B60000823AFF6E042194600200097FEF7C1F98E
:104B70000823AFF6D842102100200097FEF7B9F9BC
:104B8000082303E024E05CE0E8E0EDE0AFF6E0427B
:104B9000182100200097FEF7ACF90823AFF6E04299
:104BA000202100200097FEF7A4F90823AFF6DC428D
:104BB000282100200097FEF79CF90823AFF6D44285
:104BC000302100200097FEF794F9FEF7B5F851E781
:104BD000A078002876D1FEF70DF84D460823AFF6F1
:104BE000640200210846CDF80090FEF782F9082300
:104BF00042A2194600200095FEF77BF9BDF814305B
:104C0000BDF810204DA10BA8FBF7F6FA08230BAA5C
:104C1000102100200095FEF76CF9FEF78DF8DAF808
:104C200000104FF4FA705646886347003846FCF788
:104C30005DF93168C1F838B03846FCF757F97800AB
:104C400018E0A078F0BBFDF7D5FF4D460823AFF67E
:104C5000D40200210846CDF80090FEF74AF9082357
:104C60003BA2194600200095FEF743F9FEF764F8D1
:104C70004FF47A70FCF73AF9FDF7BCFF0823AFF662
:104C80001062002108460095FEF733F90823AFF6BD
:104C90000C62194600200095FEF72BF90823AFF6A9
:104CA0000462102100200095FEF723F90823AFF6D7
:104CB0000062182100200095FEF71BF90823AFF6CB
:104CC000006200E04BE0202100200095FEF711F982
:104CD0000823AFF60062282100200095FEF709F9AD
:104CE0000823AFF6F852302100200095FEF701F9B5
:104CF000FEF722F8A57032E050494E2056657269E1
:104D00006669656400000000446F6F7220556E6C28
:104D10006F636B65640000000A0000204E4643206C
:104D2000436172642049443A0000000041636365B6
:104D30007373204772616E746564000049443A20C1
:104D400025642C2053636F72653A202564000000AF
:104D50004E6F7420466F756E64000000A67064206C
:104D6000FCF7C4F8FEF706BFFDF744FF4E460823E4
:104D7000AFF6F81200210846CDF80090FEF7B9F81A
:104D80000823AFF68C12194600200096FEF7B1F802
:104D90002846FBF78BFC02460823102100200096D2
:104DA000FEF7A7F8FDF7C8FF4FF47A70FCF79EF8FE
:104DB000FDF720FF0823AFF6487200210846009651
:104DC000FEF797F80823AFF64472194600200096C4
:104DD000FEF78FF80823AFF63C72102100200096F2
:104DE000FEF787F80823AFF63872182100200096E6
:104DF000FEF77FF80823AFF63872202100200096D6
:104E0000FEF777F80823AFF63472282100200096C9
:104E1000FEF76FF80823AFF62C72302100200096C1
:104E2000FEF767F8FDF788FF98E701020203040523
:104E3000060708090A0B0C0D0E0F101000000000E9
:104E4000000000000102030406070809000000003A
:104E5000010203040000000000000000002F000019
:104E600000000700070000147F147F1400242A7F2D
:104E70002A120062640813230036495522500000AC
:104E80000503000000001C224100000041221C001C
:104E90000014083E08140008083E0808000000A09E
:104EA000600000080808080800006060000000209A
:104EB00010080402003E5149453E0000427F400078
:104EC000004261514946002141454B3100181412FE
:104ED0007F10002745454539003C4A4949300001CB
:104EE0007109050300364949493600064949291E1A
:104EF000000036360000000056360000000814227C
:104F0000410000141414141400004122140800027B
:104F10000151090600324959513E007C1211127CA0
:104F2000007F49494936003E41414122007F4141CD
:104F3000221C007F49494941007F09090901003EBF
:104F40004149497A007F0808087F0000417F4100FD
:104F5000002040413F01007F08142241007F404073
:104F60004040007F020C027F007F0408107F003E5B
:104F70004141413E007F09090906003E4151215E41
:104F8000007F091929460046494949310001017F3E
:104F90000101003F4040403F001F2040201F003FD4
:104FA0004038403F00631408146300070870080786
:104FB00000615149454300007F41410000552A5599
:104FC0002A55000041417F00000402010204004014
:104FD0004040404000000102040000205454547836
:104FE000007F484444380038444444200038444456
:104FF000487F00385454541800087E0901020018F4
:10500000A4A4A47C007F080404780000447D400030
:10501000004080847D00007F102844000000417F14
:105020004000007C04180478007C080404780038F0
:105030004444443800FC242424180018242418FC78
:10504000007C0804040800485454542000043F44E1
:105050004020003C4040207C001C2040201C003CA4
:105060004030403C004428102844001CA0A0A07CF4
:10507000004464544C44141414141414000000002C
:1050800000000000000000000000FC000000000024
:1050900002000000000C020C0200000000000000F2
:1050A00090D0BCD0BC900003000300001824FE4444
:1050B0008C000302070201001824D8B04C800003C2
:1050C00000010201C038E438E000010202010202DE
:1050D000080600000000000000000000000000F8CA
:1050E0000402000000010204000204F800000004B1
:1050F000020100009060F8609000000001000000D4
:105100002020FC2020000000010000000000000022
:1051100000000806000000002020202020000000E1
:10512000000000000000000000000002000000007D
:105130000080601C0200040300000000F804040466
:10514000F8000102020201000008FC000000000259
:105150000302000018844424180003020202020023
:1051600008042424D80001020202010040B088FC97
:1051700080000000000302003C242424C40001023B
:1051800002020100F824242CC000010202020100E6
:105190000C04E41C0400000003000000D8242424B4
:1051A000D80001020202010038444444F800000320
:1051B00002020100000010000000000002000000D8
:1051C00000002000000000000600000000205088C1
:1051D00004020000000001029090909090000000F6
:1051E00000000000000204885020000201000000BE
:1051F0001804C4241800000002000000F804E4941D
:10520000F80001020202020000E09CF080000203AC
:105210000000030204FC2424D8000203020201005F
:10522000F80404040C0001020202010004FC04045E
:10523000F80002030202010004FC24740C000203C3
:105240000202030004FC24740C00020302000000AC
:10525000F0080444CC4000010202010004FC2020BC
:10526000FC040203000003020404FC040400020224
:1052700003020200000404FC04040604040300000A
:1052800004FC24D00C0402030200030204FC04000A
:105290000000020302020203FC3CC03CFC000300CD
:1052A0000300030004FC30C4FC04020302000300FA
:1052B000F8040404F80001020202010004FC2424A2
:1052C0001800020302000000F8848404F8000102C0
:1052D0000207050004FC2464980002030200030294
:1052E000182424448C000302020201000C04FC0474
:1052F0000C0000020302000004FC0000FC0400019A
:1053000002020100047C80E01C0400000300000095
:105310001CE03CE01C00000300030000049C609CB7
:105320000400020300030200041CE01C040000024D
:10533000030200000C84641C040002030202030048
:105340000000FE020200000007040400000E30C04E
:105350000000000000010200000202FE0000000444
:105360000407000000040204000000000000000028
:1053700000000000000008080808080800000200FB
:1053800000000000000000000040A0A0C0000001DC
:105390000202030204FC2020C000000302020100FC
:1053A00000C02020600000010202020000C0202492
:1053B000FC0000010202030200C0A0A0C000000126
:1053C000020202000020F82424040002030202006A
:1053D0000040A0A0602000070A0A0A0404FC202064
:1053E000C0000203020003020020E40000000002EB
:1053F00003020000000020E4000008080807000085
:1054000004FC80E020200203020003020404FC00EC
:105410000000020203020200E020E020C0000300BE
:105420000300030020E02020C0000203020003026A
:1054300000C02020C00000010202010020E0202066
:10544000C000080F0A02010000C02020E000000197
:10545000020A0F0820E040202000020302000000A2
:105460000060A0A020000002020203000020F8203B
:10547000000000000102020020E00020E000000126
:105480000202030220E020806020000003010000EF
:105490006080E08060000003000300002060806006
:1054A000200002030003020020E0208060200808A2
:1054B000070100000020A06020000002030202009B
:1054C000000020DE0200000000070400000000FFD2
:1054D00000000000000F00000002DE2000000004B9
:1054E00007000000020102040402000000000000A6
:1054F00000000000000000000000000000000000AC
:10550000000000F800000000000000333000000040
:1055100000100C06100C0600000000000000000047
:1055200040C07840C0784000043F04043F040400B9
:10553000007088FC08300000001820FF211E0000C9
:10554000F008F000E018000000211C031E211E00DE
:1055500000F00888700000001E2123241927211064
:1055600010160E0000000000000000000000000007
:10557000000000E0180402000000000718204000AE
:1055800000020418E000000000402018070000009E
:10559000404080F0804040000202010F0102020002
:1055A000000000F0000000000101011F01010100E6
:1055B000000000000000000080B07000000000004B
:1055C00000000000000000000001010101010101D4
:1055D000000000000000000000303000000000006B
:1055E0000000000080601804006018060100000040
:1055F00000E010080810E000000F102020100F003D
:10560000001010F8000000000020203F20200000C3
:10561000007008080888700000302824222130001B
:1056200000300888884830000018202020110E0023
:105630000000C02010F8000000070424243F2400CC
:1056400000F80888880808000019212020110E00A1
:1056500000E0108888180000000F112020110E00B3
:1056600000380808C83808000000003F00000000AB
:105670000070880808887000001C222121221C006C
:1056800000E010080810E0000000312222110F0095
:10569000000000C0C000000000000030300000002A
:1056A000000000800000000000008060000000009A
:1056B00000008040201008000001020408102000B3
:1056C00040404040404040000404040404040400FE
:1056D0000008102040800000002010080402010093
:1056E000007048080808F000000000303601000093
:1056F000C030C828E810E0000718272423140B0046
:105700000000C038E0000000203C230202273820BF
:1057100008F8888888700000203F202020110E00A3
:10572000C03008080808380007182020201008009A
:1057300008F808080810E000203F202020100F0083
:1057400008F88888E8081000203F2020232018004F
:1057500008F88888E8081000203F200003000000B7
:10576000C03008080838000007182020221E020058
:1057700008F808000008F808203F210101213F2017
:10578000000808F8080800000020203F2020000042
:1057900000000808F8080800C08080807F00000032
:1057A00008F888C028180800203F2001263820006B
:1057B00008F8080000000000203F202020203000D2
:1057C00008F8F800F8F80800203F003F003F2000EC
:1057D00008F830C00008F808203F200007183F00F4
:1057E000E01008080810E0000F10202020100F0023
:1057F00008F808080808F000203F21010101000016
:10580000E01008080810E0000F18242438504F005A
:1058100008F8888888887000203F2000030C30201A
:1058200000708808080838000038202121221C0058
:10583000180808F8080818000000203F20000000A1
:1058400008F808000008F808001F202020201F008A
:105850000878880000C83808000007380E010000EA
:10586000F80800F80008F800033C0700073C0300B4
:10587000081868808068180820302C03032C30201A
:105880000838C800C83808000000203F2000000089
:1058900010080808C83808002038262120201800E1
:1058A000000000FE020202000000007F40404000B5
:1058B000000C30C000000000000000010638C000ED
:1058C00000020202FE000000004040407F00000095
:1058D00000000402020204000000000000000000BA
:1058E00000000000000000008080808080808080B8
:1058F00000020204000000000000000000000000A0
:1059000000008080808000000019242222223F2095
:1059100008F8008080000000003F112020110E00D8
:105920000000008080800000000E11202020110067
:10593000000000808088F800000E112020103F2019
:105940000000808080800000001F2222222213009D
:10595000008080F0888888180020203F20200000E8
:105960000000808080808000006B9494949360009D
:1059700008F8008080800000203F210000203F20A8
:1059800000809898000000000020203F20200000A8
:10599000000000809898000000C08080807F000098
:1059A00008F8000080808000203F24022D30200075
:1059B000000808F8000000000020203F2020000020
:1059C0008080808080808000203F20003F20003F3A
:1059D0008080008080800000203F210000203F2048
:1059E0000000808080800000001F202020201F00F9
:1059F000808000808000000080FFA12020110E0028
:105A00000000008080808000000E112020A0FF8018
:105A1000808080008080800020203F2120000100C5
:105A2000000080808080800000332424242419001A
:105A3000008080E0808000000000001F2020000027
:105A40008080000000808000001F202020103F2068
:105A5000808080000080808000010E3008060100F8
:105A600080800080008080800F300C030C300F009D
:105A700000808000808080000020312E0E312000C8
:105A8000808080000080808080818E7018060100F8
:105A900000808080808080000021302C2221300016
:105AA00000000000807C020200000000003F404037
:105AB00000000000FF00000000000000FF000000E8
:105AC0000002027C800000000040403F0000000017
:105AD00000060101020204040000000000000000B2
